{
  "contractName": "BettingLite",
  "abi": [
    {
      "inputs": [
        {
          "internalType": "bytes32",
          "name": "_salt",
          "type": "bytes32"
        },
        {
          "internalType": "address payable",
          "name": "recipientAddress",
          "type": "address"
        }
      ],
      "stateMutability": "payable",
      "type": "constructor",
      "payable": true
    },
    {
      "anonymous": false,
      "inputs": [
        {
          "indexed": false,
          "internalType": "uint256",
          "name": "arbitarBalance",
          "type": "uint256"
        },
        {
          "indexed": false,
          "internalType": "uint256",
          "name": "bettingValue",
          "type": "uint256"
        },
        {
          "indexed": false,
          "internalType": "uint256",
          "name": "playerBalance",
          "type": "uint256"
        },
        {
          "indexed": false,
          "internalType": "uint256",
          "name": "phase",
          "type": "uint256"
        }
      ],
      "name": "Balances",
      "type": "event"
    },
    {
      "anonymous": false,
      "inputs": [
        {
          "indexed": false,
          "internalType": "uint256",
          "name": "arbitarBalance",
          "type": "uint256"
        },
        {
          "indexed": false,
          "internalType": "uint256",
          "name": "bettingValue",
          "type": "uint256"
        },
        {
          "indexed": false,
          "internalType": "uint256",
          "name": "playerBalance",
          "type": "uint256"
        },
        {
          "indexed": false,
          "internalType": "string",
          "name": "msg",
          "type": "string"
        },
        {
          "indexed": false,
          "internalType": "uint256",
          "name": "value",
          "type": "uint256"
        },
        {
          "indexed": false,
          "internalType": "uint256",
          "name": "phase",
          "type": "uint256"
        }
      ],
      "name": "BalancesWithMsg",
      "type": "event"
    },
    {
      "anonymous": false,
      "inputs": [
        {
          "indexed": false,
          "internalType": "uint256",
          "name": "phase",
          "type": "uint256"
        }
      ],
      "name": "BettingDone",
      "type": "event"
    },
    {
      "anonymous": false,
      "inputs": [
        {
          "indexed": false,
          "internalType": "uint256",
          "name": "phase",
          "type": "uint256"
        }
      ],
      "name": "BettingStarted",
      "type": "event"
    },
    {
      "anonymous": false,
      "inputs": [
        {
          "indexed": false,
          "internalType": "uint256",
          "name": "phase",
          "type": "uint256"
        }
      ],
      "name": "CurrentPhase",
      "type": "event"
    },
    {
      "anonymous": false,
      "inputs": [
        {
          "indexed": false,
          "internalType": "uint256",
          "name": "phase",
          "type": "uint256"
        }
      ],
      "name": "InvestingStarted",
      "type": "event"
    },
    {
      "anonymous": false,
      "inputs": [
        {
          "indexed": false,
          "internalType": "string",
          "name": "val",
          "type": "string"
        },
        {
          "indexed": false,
          "internalType": "string",
          "name": "message",
          "type": "string"
        }
      ],
      "name": "Message",
      "type": "event"
    },
    {
      "anonymous": false,
      "inputs": [
        {
          "indexed": false,
          "internalType": "address",
          "name": "ownerAccount",
          "type": "address"
        },
        {
          "indexed": false,
          "internalType": "address",
          "name": "ownerAddress",
          "type": "address"
        }
      ],
      "name": "OwnerInfo",
      "type": "event"
    },
    {
      "anonymous": false,
      "inputs": [
        {
          "indexed": false,
          "internalType": "uint256",
          "name": "amount",
          "type": "uint256"
        }
      ],
      "name": "Pending",
      "type": "event"
    },
    {
      "anonymous": false,
      "inputs": [
        {
          "indexed": false,
          "internalType": "address",
          "name": "ownerAccount",
          "type": "address"
        },
        {
          "indexed": false,
          "internalType": "address",
          "name": "ownerAddress",
          "type": "address"
        },
        {
          "indexed": false,
          "internalType": "uint256",
          "name": "arbitarBalance",
          "type": "uint256"
        },
        {
          "indexed": false,
          "internalType": "uint256",
          "name": "bettingValue",
          "type": "uint256"
        },
        {
          "indexed": false,
          "internalType": "uint256",
          "name": "playerBalance",
          "type": "uint256"
        },
        {
          "indexed": false,
          "internalType": "uint256",
          "name": "phase",
          "type": "uint256"
        },
        {
          "indexed": false,
          "internalType": "uint256",
          "name": "payBalance",
          "type": "uint256"
        }
      ],
      "name": "initialiseContract",
      "type": "event"
    },
    {
      "inputs": [],
      "name": "beneficiary",
      "outputs": [
        {
          "internalType": "address payable",
          "name": "",
          "type": "address"
        }
      ],
      "stateMutability": "view",
      "type": "function",
      "constant": true
    },
    {
      "inputs": [],
      "name": "currentPhase",
      "outputs": [
        {
          "internalType": "enum BettingLite.Phase",
          "name": "",
          "type": "uint8"
        }
      ],
      "stateMutability": "view",
      "type": "function",
      "constant": true
    },
    {
      "inputs": [],
      "name": "reciever",
      "outputs": [
        {
          "internalType": "address payable",
          "name": "",
          "type": "address"
        }
      ],
      "stateMutability": "view",
      "type": "function",
      "constant": true
    },
    {
      "stateMutability": "payable",
      "type": "receive",
      "payable": true
    },
    {
      "inputs": [],
      "name": "deposit",
      "outputs": [],
      "stateMutability": "payable",
      "type": "function",
      "payable": true
    },
    {
      "inputs": [
        {
          "internalType": "string",
          "name": "password",
          "type": "string"
        }
      ],
      "name": "createPassword",
      "outputs": [
        {
          "internalType": "bool",
          "name": "",
          "type": "bool"
        }
      ],
      "stateMutability": "nonpayable",
      "type": "function"
    },
    {
      "inputs": [],
      "name": "betting",
      "outputs": [],
      "stateMutability": "payable",
      "type": "function",
      "payable": true
    },
    {
      "inputs": [
        {
          "internalType": "uint256",
          "name": "prediction",
          "type": "uint256"
        },
        {
          "internalType": "uint256",
          "name": "actualValue",
          "type": "uint256"
        }
      ],
      "name": "predictWinning",
      "outputs": [],
      "stateMutability": "nonpayable",
      "type": "function"
    },
    {
      "inputs": [],
      "name": "settleUp",
      "outputs": [],
      "stateMutability": "payable",
      "type": "function",
      "payable": true
    },
    {
      "inputs": [
        {
          "internalType": "string",
          "name": "password",
          "type": "string"
        }
      ],
      "name": "withdraw",
      "outputs": [],
      "stateMutability": "nonpayable",
      "type": "function"
    },
    {
      "inputs": [],
      "name": "retry",
      "outputs": [],
      "stateMutability": "nonpayable",
      "type": "function"
    },
    {
      "inputs": [],
      "name": "closeBetting",
      "outputs": [],
      "stateMutability": "nonpayable",
      "type": "function"
    },
    {
      "inputs": [],
      "name": "getBalances",
      "outputs": [],
      "stateMutability": "nonpayable",
      "type": "function"
    },
    {
      "inputs": [],
      "name": "getPending",
      "outputs": [],
      "stateMutability": "nonpayable",
      "type": "function"
    },
    {
      "inputs": [],
      "name": "initialiseAll",
      "outputs": [],
      "stateMutability": "nonpayable",
      "type": "function"
    }
  ],
  "bytecode": "0x608060405260008060006101000a81548160ff0219169083600481111561002257fe5b0217905550604051611e01380380611e018339818101604052604081101561004957600080fd5b81019080805190602001909291908051906020019092919050505030600460006101000a81548173ffffffffffffffffffffffffffffffffffffffff021916908373ffffffffffffffffffffffffffffffffffffffff16021790555080600560006101000a81548173ffffffffffffffffffffffffffffffffffffffff021916908373ffffffffffffffffffffffffffffffffffffffff16021790555033600660006101000a81548173ffffffffffffffffffffffffffffffffffffffff021916908373ffffffffffffffffffffffffffffffffffffffff1602179055506000600260006101000a81548160ff0219169083600881111561014657fe5b021790555060008060006101000a81548160ff0219169083600481111561016957fe5b02179055506014600381905550816007819055505050611c738061018e6000396000f3fe6080604052600436106100e05760003560e01c806344555a391161007f578063aee3617611610059578063aee36176146103a7578063d0e30db0146103be578063f4b0b756146103c8578063fae8fb2c14610409576100e7565b806344555a391461027a5780635287b84b146102bf5780639abb6551146102c9576100e7565b806315ac534d116100bb57806315ac534d1461015057806331fb67c21461016757806338af3eed1461022f57806339b4b0d614610270576100e7565b8062113e08146100ec578063055ad42e1461010357806311ae9ed214610139576100e7565b366100e757005b600080fd5b3480156100f857600080fd5b50610101610420565b005b34801561010f57600080fd5b506101186104e2565b6040518082600481111561012857fe5b815260200191505060405180910390f35b34801561014557600080fd5b5061014e6104f3565b005b34801561015c57600080fd5b5061016561056e565b005b34801561017357600080fd5b5061022d6004803603602081101561018a57600080fd5b81019080803590602001906401000000008111156101a757600080fd5b8201836020820111156101b957600080fd5b803590602001918460018302840111640100000000831117156101db57600080fd5b91908080601f016020809104026020016040519081016040528093929190818152602001838380828437600081840152601f19601f8201169050808301925050505050505091929192905050506105e2565b005b34801561023b57600080fd5b50610244610b16565b604051808273ffffffffffffffffffffffffffffffffffffffff16815260200191505060405180910390f35b610278610b3c565b005b34801561028657600080fd5b506102bd6004803603604081101561029d57600080fd5b810190808035906020019092919080359060200190929190505050610e2b565b005b6102c76114b7565b005b3480156102d557600080fd5b5061038f600480360360208110156102ec57600080fd5b810190808035906020019064010000000081111561030957600080fd5b82018360208201111561031b57600080fd5b8035906020019184600183028401116401000000008311171561033d57600080fd5b91908080601f016020809104026020016040519081016040528093929190818152602001838380828437600081840152601f19601f8201169050808301925050505050505091929192905050506115e4565b60405180821515815260200191505060405180910390f35b3480156103b357600080fd5b506103bc6118cd565b005b6103c6611a59565b005b3480156103d457600080fd5b506103dd611a5b565b604051808273ffffffffffffffffffffffffffffffffffffffff16815260200191505060405180910390f35b34801561041557600080fd5b5061041e611a81565b005b7f875827912964972bc7f37f95730aee48894bf63c3f6e9862d43af4578064df3347600160003373ffffffffffffffffffffffffffffffffffffffff1673ffffffffffffffffffffffffffffffffffffffff168152602001908152602001600020600101543373ffffffffffffffffffffffffffffffffffffffff163160008054906101000a900460ff1660048111156104b657fe5b6040518085815260200184815260200183815260200182815260200194505050505060405180910390a1565b60008054906101000a900460ff1681565b7f4e2c5ab35c5a6c864cb37f0d4b556e39e83aa85e744306ad9fd3ad7cc933028b600160003373ffffffffffffffffffffffffffffffffffffffff1673ffffffffffffffffffffffffffffffffffffffff168152602001908152602001600020600201546040518082815260200191505060405180910390a1565b600460009054906101000a900473ffffffffffffffffffffffffffffffffffffffff1673ffffffffffffffffffffffffffffffffffffffff163373ffffffffffffffffffffffffffffffffffffffff1614156105c957600080fd5b3373ffffffffffffffffffffffffffffffffffffffff16ff5b600460009054906101000a900473ffffffffffffffffffffffffffffffffffffffff1673ffffffffffffffffffffffffffffffffffffffff163373ffffffffffffffffffffffffffffffffffffffff16141561063d57600080fd5b6000600460009054906101000a900473ffffffffffffffffffffffffffffffffffffffff1673ffffffffffffffffffffffffffffffffffffffff16311161068357600080fd5b806007546040516020018083805190602001908083835b602083106106bd578051825260208201915060208101905060208303925061069a565b6001836020036101000a0380198251168184511680821785525050505050509050018281526020019250505060405160208183030381529060405280519060200120600160003373ffffffffffffffffffffffffffffffffffffffff1673ffffffffffffffffffffffffffffffffffffffff16815260200190815260200160002060000154146107b5576040517f08c379a00000000000000000000000000000000000000000000000000000000081526004018080602001828103825260108152602001807f696e76616c69642070617373776f72640000000000000000000000000000000081525060200191505060405180910390fd5b600260048111156107c257fe5b60008054906101000a900460ff1660048111156107db57fe5b1461084e576040517f08c379a000000000000000000000000000000000000000000000000000000000815260040180806020018281038252600d8152602001807f496e76616c69642070686173650000000000000000000000000000000000000081525060200191505060405180910390fd5b6000600160003373ffffffffffffffffffffffffffffffffffffffff1673ffffffffffffffffffffffffffffffffffffffff1681526020019081526020016000206001015411610906576040517f08c379a00000000000000000000000000000000000000000000000000000000081526004018080602001828103825260198152602001807f596f7520646f6e74206861766520616e792077696e6e696e670000000000000081525060200191505060405180910390fd5b600047600160003373ffffffffffffffffffffffffffffffffffffffff1673ffffffffffffffffffffffffffffffffffffffff16815260200190815260200160002060010154111561095a574790506109a0565b600160003373ffffffffffffffffffffffffffffffffffffffff1673ffffffffffffffffffffffffffffffffffffffff1681526020019081526020016000206001015490505b3373ffffffffffffffffffffffffffffffffffffffff166108fc829081150290604051600060405180830381858888f193505050501580156109e6573d6000803e3d6000fd5b506000600160003373ffffffffffffffffffffffffffffffffffffffff1673ffffffffffffffffffffffffffffffffffffffff1681526020019081526020016000206001018190555060046000806101000a81548160ff02191690836004811115610a4d57fe5b02179055507f875827912964972bc7f37f95730aee48894bf63c3f6e9862d43af4578064df3347600160003373ffffffffffffffffffffffffffffffffffffffff1673ffffffffffffffffffffffffffffffffffffffff168152602001908152602001600020600101543373ffffffffffffffffffffffffffffffffffffffff163160008054906101000a900460ff166004811115610ae857fe5b6040518085815260200184815260200183815260200182815260200194505050505060405180910390a15050565b600660009054906101000a900473ffffffffffffffffffffffffffffffffffffffff1681565b600a341015610b96576040517f08c379a0000000000000000000000000000000000000000000000000000000008152600401808060200182810382526022815260200180611be96022913960400191505060405180910390fd5b473410610bee576040517f08c379a0000000000000000000000000000000000000000000000000000000008152600401808060200182810382526033815260200180611c0b6033913960400191505060405180910390fd5b60016004811115610bfb57fe5b60008054906101000a900460ff166004811115610c1457fe5b14610c87576040517f08c379a000000000000000000000000000000000000000000000000000000000815260040180806020018281038252600d8152602001807f496e76616c69642070686173650000000000000000000000000000000000000081525060200191505060405180910390fd5b6000349050600460009054906101000a900473ffffffffffffffffffffffffffffffffffffffff1673ffffffffffffffffffffffffffffffffffffffff166108fc349081150290604051600060405180830381858888f19350505050158015610cf4573d6000803e3d6000fd5b5080600160003373ffffffffffffffffffffffffffffffffffffffff1673ffffffffffffffffffffffffffffffffffffffff1681526020019081526020016000206001016000828254019250508190555060026000806101000a81548160ff02191690836004811115610d6357fe5b02179055507f875827912964972bc7f37f95730aee48894bf63c3f6e9862d43af4578064df3347600160003373ffffffffffffffffffffffffffffffffffffffff1673ffffffffffffffffffffffffffffffffffffffff168152602001908152602001600020600101543373ffffffffffffffffffffffffffffffffffffffff163160008054906101000a900460ff166004811115610dfe57fe5b6040518085815260200184815260200183815260200182815260200194505050505060405180910390a150565b600460009054906101000a900473ffffffffffffffffffffffffffffffffffffffff1673ffffffffffffffffffffffffffffffffffffffff163373ffffffffffffffffffffffffffffffffffffffff161415610e8657600080fd5b6000600460009054906101000a900473ffffffffffffffffffffffffffffffffffffffff1673ffffffffffffffffffffffffffffffffffffffff163111610ecc57600080fd5b60026004811115610ed957fe5b60008054906101000a900460ff166004811115610ef257fe5b14610f65576040517f08c379a000000000000000000000000000000000000000000000000000000000815260040180806020018281038252600d8152602001807f496e76616c69642070686173650000000000000000000000000000000000000081525060200191505060405180910390fd5b60004711610fdb576040517f08c379a00000000000000000000000000000000000000000000000000000000081526004018080602001828103825260128152602001807f4f776e657220686173206e6f206d6f6e6579000000000000000000000000000081525060200191505060405180910390fd5b6000600160003373ffffffffffffffffffffffffffffffffffffffff1673ffffffffffffffffffffffffffffffffffffffff168152602001908152602001600020600101541161102757fe5b6000600881111561103457fe5b811015801561104e575060088081111561104a57fe5b8111155b61105457fe5b6000600881111561106157fe5b821015801561107b575060088081111561107757fe5b8211155b61108157fe5b600080600881111561108f57fe5b90506000600160088111156110a057fe5b9050600660088111156110af57fe5b8414806110c75750600460088111156110c457fe5b84145b156110e057600260088111156110d957fe5b9150611119565b600760088111156110ed57fe5b841415611108576004600881111561110157fe5b9150611118565b6001600881111561111557fe5b91505b5b82841461135b5760036000806101000a81548160ff0219169083600481111561113e57fe5b0217905550670de0b6b3a76400008202600160003373ffffffffffffffffffffffffffffffffffffffff1673ffffffffffffffffffffffffffffffffffffffff168152602001908152602001600020600101600082825403925050819055506000600160003373ffffffffffffffffffffffffffffffffffffffff1673ffffffffffffffffffffffffffffffffffffffff168152602001908152602001600020600101541161120b5760016000806101000a81548160ff0219169083600481111561120557fe5b02179055505b81905080600160003373ffffffffffffffffffffffffffffffffffffffff1673ffffffffffffffffffffffffffffffffffffffff168152602001908152602001600020600201819055507fe09c1055ce4d49f1de7ab9b7212776ff6f7d5aa4ffd8cf729ced9abd2e65582147600160003373ffffffffffffffffffffffffffffffffffffffff1673ffffffffffffffffffffffffffffffffffffffff168152602001908152602001600020600101543373ffffffffffffffffffffffffffffffffffffffff16318460008054906101000a900460ff1660048111156112ec57fe5b6040518086815260200185815260200184815260200180602001848152602001838152602001828103825260088152602001807f6e65676174697665000000000000000000000000000000000000000000000000815250602001965050505050505060405180910390a16114b1565b3373ffffffffffffffffffffffffffffffffffffffff166108fc670de0b6b3a764000084029081150290604051600060405180830381858888f193505050501580156113ab573d6000803e3d6000fd5b508190507fe09c1055ce4d49f1de7ab9b7212776ff6f7d5aa4ffd8cf729ced9abd2e65582147600160003373ffffffffffffffffffffffffffffffffffffffff1673ffffffffffffffffffffffffffffffffffffffff168152602001908152602001600020600101543373ffffffffffffffffffffffffffffffffffffffff16318460008054906101000a900460ff16600481111561144657fe5b6040518086815260200185815260200184815260200180602001848152602001838152602001828103825260088152602001807f706f736974697665000000000000000000000000000000000000000000000000815250602001965050505050505060405180910390a15b50505050565b60026000806101000a81548160ff021916908360048111156114d557fe5b02179055506000600160003373ffffffffffffffffffffffffffffffffffffffff1673ffffffffffffffffffffffffffffffffffffffff168152602001908152602001600020600201819055507f875827912964972bc7f37f95730aee48894bf63c3f6e9862d43af4578064df3347600160003373ffffffffffffffffffffffffffffffffffffffff1673ffffffffffffffffffffffffffffffffffffffff168152602001908152602001600020600101543373ffffffffffffffffffffffffffffffffffffffff163160008054906101000a900460ff1660048111156115b857fe5b6040518085815260200184815260200183815260200182815260200194505050505060405180910390a1565b6000600460009054906101000a900473ffffffffffffffffffffffffffffffffffffffff1673ffffffffffffffffffffffffffffffffffffffff163373ffffffffffffffffffffffffffffffffffffffff16141561164157600080fd5b6000600481111561164e57fe5b60008054906101000a900460ff16600481111561166757fe5b146116da576040517f08c379a000000000000000000000000000000000000000000000000000000000815260040180806020018281038252600d8152602001807f496e76616c69642070686173650000000000000000000000000000000000000081525060200191505060405180910390fd5b6000801b600160003373ffffffffffffffffffffffffffffffffffffffff1673ffffffffffffffffffffffffffffffffffffffff1681526020019081526020016000206000015414611794576040517f08c379a000000000000000000000000000000000000000000000000000000000815260040180806020018281038252601c8152602001807f70617373776f726420616c726561647920696e697469616c697365640000000081525060200191505060405180910390fd5b60016000806101000a81548160ff021916908360048111156117b257fe5b0217905550816007546040516020018083805190602001908083835b602083106117f157805182526020820191506020810190506020830392506117ce565b6001836020036101000a0380198251168184511680821785525050505050509050018281526020019250505060405160208183030381529060405280519060200120600160003373ffffffffffffffffffffffffffffffffffffffff1673ffffffffffffffffffffffffffffffffffffffff168152602001908152602001600020600001819055507fa7ec6c860b0562da7ca25e276f719d2ad4b41cb3419a54d278bc3310eb402bef60008054906101000a900460ff1660048111156118b357fe5b6040518082815260200191505060405180910390a1919050565b7f6769785b1f592f403ef92ccdf6796c522152be0c81b628d242d54ddb64b645a3600460009054906101000a900473ffffffffffffffffffffffffffffffffffffffff16600660009054906101000a900473ffffffffffffffffffffffffffffffffffffffff1647600160003373ffffffffffffffffffffffffffffffffffffffff1673ffffffffffffffffffffffffffffffffffffffff168152602001908152602001600020600101543373ffffffffffffffffffffffffffffffffffffffff163160008054906101000a900460ff1660048111156119a957fe5b600160003373ffffffffffffffffffffffffffffffffffffffff1673ffffffffffffffffffffffffffffffffffffffff16815260200190815260200160002060020154604051808873ffffffffffffffffffffffffffffffffffffffff1681526020018773ffffffffffffffffffffffffffffffffffffffff16815260200186815260200185815260200184815260200183815260200182815260200197505050505050505060405180910390a1565b565b600560009054906101000a900473ffffffffffffffffffffffffffffffffffffffff1681565b600460009054906101000a900473ffffffffffffffffffffffffffffffffffffffff1673ffffffffffffffffffffffffffffffffffffffff163373ffffffffffffffffffffffffffffffffffffffff161415611adc57600080fd5b600480811115611ae857fe5b60008054906101000a900460ff166004811115611b0157fe5b14611b74576040517f08c379a000000000000000000000000000000000000000000000000000000000815260040180806020018281038252600d8152602001807f496e76616c69642070686173650000000000000000000000000000000000000081525060200191505060405180910390fd5b60016000806101000a81548160ff02191690836004811115611b9257fe5b02179055507fac6dc5afc7288de486f031af859ae136dac47ca4bfafc2ac097d9ea867e189b060008054906101000a900460ff166004811115611bd157fe5b6040518082815260200191505060405180910390a156fe42657474696e672076616c75652073686f756c642062652061746c6561737420313042657474696e672076616c75652073686f756c64206265206c657373207468616e207468652062657474696e672076616c7565a2646970667358221220f01a6c2be4f954226c0b0dcb70770203d745ba93ec2d0d8db81e4fc5846b7f9e64736f6c634300060c0033",
  "immutableReferences": {},
  "source": "//SPDX-License-Identifier: UNLICENSED\r\npragma solidity >=0.4.22 <=0.6.12;\r\n\r\ncontract BettingLite \r\n{\r\n    \r\n\t//structure composed of participants, has the information of the maount of betting and points he won\r\n    struct participants\r\n    { \r\n        bytes32 password;\r\n        uint bettingAmount;\r\n        uint pendingAmount;\r\n    } \r\n    \r\n    enum Phase {INIT, INVEST, BETTING, PAYUP, DONE}\r\n    enum Score {ZERO, ONE, TWO, THREE, FOUR, FIVE, SIX, SEVEN, EIGHT}\r\n    \r\n    Phase public currentPhase = Phase.INIT;\r\n    \r\n\t//All the participants are mapped to an address\r\n    mapping ( address => participants) result; \r\n    \r\n    Score score;\r\n    uint minBet;\r\n    address payable owner;\r\n    address payable public reciever;\r\n    address payable public beneficiary;\r\n    bytes32 salt;\r\n    \r\n    event Balances(uint arbitarBalance, uint bettingValue, uint playerBalance, uint phase);\r\n    event BalancesWithMsg(uint arbitarBalance, uint bettingValue, uint playerBalance, string msg , uint256 value, uint phase);\r\n    event Message(string val, string message);\r\n    event InvestingStarted(uint phase);\r\n    event BettingStarted(uint phase);\r\n    event BettingDone(uint phase);\r\n    event CurrentPhase(uint phase);\r\n    event OwnerInfo(address ownerAccount, address ownerAddress);\r\n    event Pending(uint amount);\r\n    event initialiseContract(address ownerAccount, address ownerAddress, uint arbitarBalance, uint bettingValue, uint playerBalance, uint phase, uint payBalance);\r\n\r\n    //constructor initialises the betting values and points of the organizer by 100 for participation\r\n    constructor(bytes32 _salt, address payable recipientAddress) public payable\r\n    {\r\n        owner = address(this);\r\n        reciever = recipientAddress;\r\n        beneficiary = msg.sender;\r\n        score = Score.ZERO;\r\n        currentPhase = Phase.INIT;\r\n        minBet = 20;\r\n        salt = _salt;\r\n    }\r\n    \r\n    //Fallback functions\r\n    receive () external payable {\r\n    \r\n    }\r\n\r\n    function deposit() public payable {\r\n\r\n    }\r\n\r\n\t//modifier functions\r\n    modifier _ownerOnly() \r\n    {\r\n        require(msg.sender == owner);\r\n        _;\r\n    }\r\n    \r\n    modifier _playerOnly() \r\n    {\r\n        require(msg.sender != owner);\r\n        _;\r\n    }\r\n\r\n    modifier _ownerHasMoney() {\r\n        require(owner.balance  > 0);\r\n        _;    \r\n    }\r\n    \r\n    //Step 1 create password, returns phase as betting\r\n    function createPassword (string memory password) _playerOnly public returns (bool)\r\n    {\r\n        require(currentPhase == Phase.INIT, \"Invalid phase\");\r\n        require((result[msg.sender].password == 0x0000000000000000000000000000000000000000000000000000000000000000), \"password already initialised\");\r\n        currentPhase = Phase.INVEST;\r\n        result[msg.sender].password = keccak256(abi.encodePacked(password, salt));\r\n        emit InvestingStarted(uint(currentPhase));\r\n    }\r\n\r\n    //Step 2 Enter the betting value, returns balances of both players along with the betting value\r\n    /*function bettingValue(uint val) public {\r\n        require(val >= 10, \"Betting value should be atleast 10\");\r\n        require(val < address(this).balance, \"Betting value should be less than the betting value\");\r\n        require(currentPhase == Phase.INVEST, \"Invalid phase\");\r\n        val = val * 1000000000000000000;\r\n        result[msg.sender].bettingAmount += val;\r\n        currentPhase = Phase.BETTING;\r\n        emit Balances(address(this).balance, result[msg.sender].bettingAmount, msg.sender.balance, uint(currentPhase));\r\n    }*/\r\n\r\n    //Step 2 Enter the betting value, returns balances of both players along with the betting value\r\n    function betting() public payable {\r\n        require(msg.value >= 10, \"Betting value should be atleast 10\");\r\n        require(msg.value < address(this).balance, \"Betting value should be less than the betting value\");\r\n        require(currentPhase == Phase.INVEST, \"Invalid phase\");\r\n        uint val = msg.value;\r\n        owner.transfer(msg.value);\r\n        result[msg.sender].bettingAmount += val;\r\n        currentPhase = Phase.BETTING;\r\n        emit Balances(address(this).balance, result[msg.sender].bettingAmount, msg.sender.balance, uint(currentPhase));\r\n    }\r\n\r\n    //Step 3 two parameters which decides if the predicted value of the user is correct, he is either rewared or penalized based on this\r\n    function predictWinning(uint256 prediction, uint256 actualValue) _playerOnly _ownerHasMoney public \r\n    {\r\n        require(currentPhase == Phase.BETTING, \"Invalid phase\");\r\n        require(address(this).balance > 0, \"Owner has no money\");\r\n        assert(result[msg.sender].bettingAmount > 0);\r\n        assert(actualValue >= uint256(Score.ZERO) && actualValue <= uint256(Score.EIGHT));\r\n        assert(prediction >= uint256(Score.ZERO) && prediction <= uint256(Score.EIGHT));\r\n        \r\n        uint256 point = uint256(Score.ZERO);\r\n        uint256 value = uint256(Score.ONE);\r\n        \r\n        if(prediction == uint256(Score.SIX) || prediction == uint256(Score.FOUR)) \r\n        {\r\n            point = uint256(Score.TWO);\r\n        }\r\n        else if(prediction == uint256(Score.SEVEN)) \r\n        {\r\n            //to represent wicket\r\n            point = uint256(Score.FOUR);\r\n        }\r\n        else \r\n        {\r\n            point = uint256(Score.ONE);\r\n        }\r\n        \r\n        if(prediction != actualValue) \r\n        {\r\n            currentPhase = Phase.PAYUP;\r\n            result[msg.sender].bettingAmount -= point * 1000000000000000000; \r\n            if(result[msg.sender].bettingAmount <= 0) {\r\n                currentPhase = Phase.INVEST;\r\n            }\r\n            value = point;\r\n            result[msg.sender].pendingAmount = value;\r\n            emit BalancesWithMsg(address(this).balance, result[msg.sender].bettingAmount, msg.sender.balance,\"negative\", value, uint(currentPhase));\r\n        }\r\n        else {\r\n            msg.sender.transfer( point * 1000000000000000000);\r\n            value = point;\r\n            emit BalancesWithMsg(address(this).balance, result[msg.sender].bettingAmount, msg.sender.balance, \"positive\", value, uint(currentPhase));\r\n        }\r\n    }\r\n\r\n    //Step 4 after paying it, we move on to betting phase again\r\n    function settleUp() public payable {\r\n        currentPhase = Phase.BETTING;\r\n        result[msg.sender].pendingAmount = 0;\r\n        emit Balances(address(this).balance, result[msg.sender].bettingAmount, msg.sender.balance, uint(currentPhase));\r\n    }\r\n\r\n    //Step 5 final winning amount can be withdrawn by the player\r\n    function withdraw(string memory password) _playerOnly _ownerHasMoney public \r\n    {\r\n        require(result[msg.sender].password == keccak256(abi.encodePacked(password, salt)),\"invalid password\");\r\n        require(currentPhase == Phase.BETTING, \"Invalid phase\");\r\n        require(result[msg.sender].bettingAmount > 0, \"You dont have any winning\");\r\n        uint amount = 0;\r\n        if(result[msg.sender].bettingAmount > address(this).balance) {\r\n            amount = address(this).balance;\r\n        }\r\n        else {\r\n            amount = result[msg.sender].bettingAmount;\r\n        }\r\n        msg.sender.transfer(amount);\r\n        result[msg.sender].bettingAmount = 0;\r\n        currentPhase = Phase.DONE;\r\n        emit Balances(address(this).balance, result[msg.sender].bettingAmount, msg.sender.balance, uint(currentPhase));\r\n    }\r\n\t\r\n    //Step 6 retry the betting\r\n    function retry() _playerOnly public {\r\n        require(currentPhase == Phase.DONE, \"Invalid phase\");\r\n        currentPhase = Phase.INVEST;\r\n        emit BettingStarted(uint(currentPhase));\r\n    }\r\n\r\n    //Step 7 when the betting is finished\r\n    function closeBetting() public _playerOnly {\r\n        selfdestruct(msg.sender);\r\n    }\r\n\r\n    //Anscillary functions\r\n    function getBalances() public {\r\n        emit Balances(address(this).balance, result[msg.sender].bettingAmount ,msg.sender.balance, uint(currentPhase));\r\n    }\r\n\r\n    function getPending() public {\r\n        emit Pending(result[msg.sender].pendingAmount);\r\n    }\r\n\r\n    // function getOwnerAddress() public returns (address) {\r\n    //     emit OwnerInfo(owner, beneficiary);\r\n    // }\r\n\r\n    function initialiseAll() public {\r\n        emit initialiseContract(owner, beneficiary, address(this).balance, result[msg.sender].bettingAmount ,msg.sender.balance, uint(currentPhase), result[msg.sender].pendingAmount);\r\n    }\r\n}",
  "sourcePath": "D:/Git/Active projects/BlockChainProject/BettingLite-contract/contracts/BettingLite.sol",
  "compiler": {
    "name": "solc",
    "version": "0.6.12+commit.27d51765.Emscripten.clang"
  },
  "schemaVersion": "3.3.1",
  "updatedAt": "2020-11-24T18:49:12.659Z",
  "networkType": "ethereum",
  "devdoc": {
    "kind": "dev",
    "methods": {},
    "version": 1
  },
  "userdoc": {
    "kind": "user",
    "methods": {},
    "version": 1
  }
}