{
  "contractName": "BettingLite",
  "abi": [
    {
      "inputs": [
        {
          "internalType": "bytes32",
          "name": "_salt",
          "type": "bytes32"
        },
        {
          "internalType": "address payable",
          "name": "recipientAddress",
          "type": "address"
        }
      ],
      "stateMutability": "payable",
      "type": "constructor",
      "payable": true
    },
    {
      "anonymous": false,
      "inputs": [
        {
          "indexed": false,
          "internalType": "uint256",
          "name": "arbitarBalance",
          "type": "uint256"
        },
        {
          "indexed": false,
          "internalType": "uint256",
          "name": "bettingValue",
          "type": "uint256"
        },
        {
          "indexed": false,
          "internalType": "uint256",
          "name": "playerBalance",
          "type": "uint256"
        },
        {
          "indexed": false,
          "internalType": "uint256",
          "name": "phase",
          "type": "uint256"
        }
      ],
      "name": "Balances",
      "type": "event"
    },
    {
      "anonymous": false,
      "inputs": [
        {
          "indexed": false,
          "internalType": "uint256",
          "name": "arbitarBalance",
          "type": "uint256"
        },
        {
          "indexed": false,
          "internalType": "uint256",
          "name": "bettingValue",
          "type": "uint256"
        },
        {
          "indexed": false,
          "internalType": "uint256",
          "name": "playerBalance",
          "type": "uint256"
        },
        {
          "indexed": false,
          "internalType": "string",
          "name": "msg",
          "type": "string"
        },
        {
          "indexed": false,
          "internalType": "uint256",
          "name": "value",
          "type": "uint256"
        },
        {
          "indexed": false,
          "internalType": "uint256",
          "name": "phase",
          "type": "uint256"
        }
      ],
      "name": "BalancesWithMsg",
      "type": "event"
    },
    {
      "anonymous": false,
      "inputs": [
        {
          "indexed": false,
          "internalType": "uint256",
          "name": "phase",
          "type": "uint256"
        }
      ],
      "name": "BettingDone",
      "type": "event"
    },
    {
      "anonymous": false,
      "inputs": [
        {
          "indexed": false,
          "internalType": "uint256",
          "name": "phase",
          "type": "uint256"
        }
      ],
      "name": "BettingStarted",
      "type": "event"
    },
    {
      "anonymous": false,
      "inputs": [
        {
          "indexed": false,
          "internalType": "uint256",
          "name": "phase",
          "type": "uint256"
        }
      ],
      "name": "CurrentPhase",
      "type": "event"
    },
    {
      "anonymous": false,
      "inputs": [
        {
          "indexed": false,
          "internalType": "uint256",
          "name": "phase",
          "type": "uint256"
        }
      ],
      "name": "InvestingStarted",
      "type": "event"
    },
    {
      "anonymous": false,
      "inputs": [
        {
          "indexed": false,
          "internalType": "string",
          "name": "val",
          "type": "string"
        },
        {
          "indexed": false,
          "internalType": "string",
          "name": "message",
          "type": "string"
        }
      ],
      "name": "Message",
      "type": "event"
    },
    {
      "anonymous": false,
      "inputs": [
        {
          "indexed": false,
          "internalType": "address",
          "name": "ownerAccount",
          "type": "address"
        },
        {
          "indexed": false,
          "internalType": "address",
          "name": "ownerAddress",
          "type": "address"
        }
      ],
      "name": "OwnerInfo",
      "type": "event"
    },
    {
      "anonymous": false,
      "inputs": [
        {
          "indexed": false,
          "internalType": "uint256",
          "name": "amount",
          "type": "uint256"
        }
      ],
      "name": "Pending",
      "type": "event"
    },
    {
      "inputs": [],
      "name": "beneficiary",
      "outputs": [
        {
          "internalType": "address payable",
          "name": "",
          "type": "address"
        }
      ],
      "stateMutability": "view",
      "type": "function",
      "constant": true
    },
    {
      "inputs": [],
      "name": "currentPhase",
      "outputs": [
        {
          "internalType": "enum BettingLite.Phase",
          "name": "",
          "type": "uint8"
        }
      ],
      "stateMutability": "view",
      "type": "function",
      "constant": true
    },
    {
      "inputs": [],
      "name": "reciever",
      "outputs": [
        {
          "internalType": "address payable",
          "name": "",
          "type": "address"
        }
      ],
      "stateMutability": "view",
      "type": "function",
      "constant": true
    },
    {
      "stateMutability": "payable",
      "type": "receive",
      "payable": true
    },
    {
      "inputs": [],
      "name": "deposit",
      "outputs": [],
      "stateMutability": "payable",
      "type": "function",
      "payable": true
    },
    {
      "inputs": [
        {
          "internalType": "string",
          "name": "password",
          "type": "string"
        }
      ],
      "name": "createPassword",
      "outputs": [
        {
          "internalType": "bool",
          "name": "",
          "type": "bool"
        }
      ],
      "stateMutability": "nonpayable",
      "type": "function"
    },
    {
      "inputs": [],
      "name": "betting",
      "outputs": [],
      "stateMutability": "payable",
      "type": "function",
      "payable": true
    },
    {
      "inputs": [
        {
          "internalType": "uint256",
          "name": "prediction",
          "type": "uint256"
        },
        {
          "internalType": "uint256",
          "name": "actualValue",
          "type": "uint256"
        }
      ],
      "name": "predictWinning",
      "outputs": [],
      "stateMutability": "nonpayable",
      "type": "function"
    },
    {
      "inputs": [],
      "name": "settleUp",
      "outputs": [],
      "stateMutability": "payable",
      "type": "function",
      "payable": true
    },
    {
      "inputs": [
        {
          "internalType": "string",
          "name": "password",
          "type": "string"
        }
      ],
      "name": "withdraw",
      "outputs": [],
      "stateMutability": "nonpayable",
      "type": "function"
    },
    {
      "inputs": [],
      "name": "retry",
      "outputs": [],
      "stateMutability": "nonpayable",
      "type": "function"
    },
    {
      "inputs": [],
      "name": "closeBetting",
      "outputs": [],
      "stateMutability": "nonpayable",
      "type": "function"
    },
    {
      "inputs": [],
      "name": "getBalances",
      "outputs": [],
      "stateMutability": "nonpayable",
      "type": "function"
    },
    {
      "inputs": [],
      "name": "getPending",
      "outputs": [],
      "stateMutability": "nonpayable",
      "type": "function"
    },
    {
      "inputs": [],
      "name": "getOwnerAddress",
      "outputs": [
        {
          "internalType": "address",
          "name": "",
          "type": "address"
        }
      ],
      "stateMutability": "nonpayable",
      "type": "function"
    }
  ],
  "bytecode": "0x608060405260008060006101000a81548160ff0219169083600481111561002257fe5b0217905550604051611d95380380611d958339818101604052604081101561004957600080fd5b81019080805190602001909291908051906020019092919050505030600460006101000a81548173ffffffffffffffffffffffffffffffffffffffff021916908373ffffffffffffffffffffffffffffffffffffffff16021790555080600560006101000a81548173ffffffffffffffffffffffffffffffffffffffff021916908373ffffffffffffffffffffffffffffffffffffffff16021790555033600660006101000a81548173ffffffffffffffffffffffffffffffffffffffff021916908373ffffffffffffffffffffffffffffffffffffffff1602179055506000600260006101000a81548160ff0219169083600881111561014657fe5b021790555060008060006101000a81548160ff0219169083600481111561016957fe5b02179055506014600381905550816007819055505050611c078061018e6000396000f3fe6080604052600436106100e05760003560e01c806339b4b0d61161007f5780639abb6551116100595780639abb65511461030a578063d0e30db0146103e8578063f4b0b756146103f2578063fae8fb2c14610433576100e7565b806339b4b0d6146102b157806344555a39146102bb5780635287b84b14610300576100e7565b806311ae9ed2116100bb57806311ae9ed21461017a57806315ac534d1461019157806331fb67c2146101a857806338af3eed14610270576100e7565b8062113e08146100ec578063055ad42e146101035780630c4f65bd14610139576100e7565b366100e757005b600080fd5b3480156100f857600080fd5b5061010161044a565b005b34801561010f57600080fd5b5061011861050c565b6040518082600481111561012857fe5b815260200191505060405180910390f35b34801561014557600080fd5b5061014e61051d565b604051808273ffffffffffffffffffffffffffffffffffffffff16815260200191505060405180910390f35b34801561018657600080fd5b5061018f6105d1565b005b34801561019d57600080fd5b506101a661064c565b005b3480156101b457600080fd5b5061026e600480360360208110156101cb57600080fd5b81019080803590602001906401000000008111156101e857600080fd5b8201836020820111156101fa57600080fd5b8035906020019184600183028401116401000000008311171561021c57600080fd5b91908080601f016020809104026020016040519081016040528093929190818152602001838380828437600081840152601f19601f8201169050808301925050505050505091929192905050506106c0565b005b34801561027c57600080fd5b50610285610c36565b604051808273ffffffffffffffffffffffffffffffffffffffff16815260200191505060405180910390f35b6102b9610c5c565b005b3480156102c757600080fd5b506102fe600480360360408110156102de57600080fd5b810190808035906020019092919080359060200190929190505050610f4b565b005b6103086115d7565b005b34801561031657600080fd5b506103d06004803603602081101561032d57600080fd5b810190808035906020019064010000000081111561034a57600080fd5b82018360208201111561035c57600080fd5b8035906020019184600183028401116401000000008311171561037e57600080fd5b91908080601f016020809104026020016040519081016040528093929190818152602001838380828437600081840152601f19601f820116905080830192505050505050509192919290505050611704565b60405180821515815260200191505060405180910390f35b6103f06119ed565b005b3480156103fe57600080fd5b506104076119ef565b604051808273ffffffffffffffffffffffffffffffffffffffff16815260200191505060405180910390f35b34801561043f57600080fd5b50610448611a15565b005b7f875827912964972bc7f37f95730aee48894bf63c3f6e9862d43af4578064df3347600160003373ffffffffffffffffffffffffffffffffffffffff1673ffffffffffffffffffffffffffffffffffffffff168152602001908152602001600020600101543373ffffffffffffffffffffffffffffffffffffffff163160008054906101000a900460ff1660048111156104e057fe5b6040518085815260200184815260200183815260200182815260200194505050505060405180910390a1565b60008054906101000a900460ff1681565b60007fa0b79a71901dc9357995c538e68cbb2d764aa81eef117a2135b90e79dbe2f56c600460009054906101000a900473ffffffffffffffffffffffffffffffffffffffff16600660009054906101000a900473ffffffffffffffffffffffffffffffffffffffff16604051808373ffffffffffffffffffffffffffffffffffffffff1681526020018273ffffffffffffffffffffffffffffffffffffffff1681526020019250505060405180910390a190565b7f4e2c5ab35c5a6c864cb37f0d4b556e39e83aa85e744306ad9fd3ad7cc933028b600160003373ffffffffffffffffffffffffffffffffffffffff1673ffffffffffffffffffffffffffffffffffffffff168152602001908152602001600020600201546040518082815260200191505060405180910390a1565b600460009054906101000a900473ffffffffffffffffffffffffffffffffffffffff1673ffffffffffffffffffffffffffffffffffffffff163373ffffffffffffffffffffffffffffffffffffffff1614156106a757600080fd5b3373ffffffffffffffffffffffffffffffffffffffff16ff5b600460009054906101000a900473ffffffffffffffffffffffffffffffffffffffff1673ffffffffffffffffffffffffffffffffffffffff163373ffffffffffffffffffffffffffffffffffffffff16141561071b57600080fd5b6000600460009054906101000a900473ffffffffffffffffffffffffffffffffffffffff1673ffffffffffffffffffffffffffffffffffffffff16311161076157600080fd5b806007546040516020018083805190602001908083835b6020831061079b5780518252602082019150602081019050602083039250610778565b6001836020036101000a0380198251168184511680821785525050505050509050018281526020019250505060405160208183030381529060405280519060200120600160003373ffffffffffffffffffffffffffffffffffffffff1673ffffffffffffffffffffffffffffffffffffffff1681526020019081526020016000206000015414610893576040517f08c379a00000000000000000000000000000000000000000000000000000000081526004018080602001828103825260108152602001807f696e76616c69642070617373776f72640000000000000000000000000000000081525060200191505060405180910390fd5b600260048111156108a057fe5b60008054906101000a900460ff1660048111156108b957fe5b1461092c576040517f08c379a000000000000000000000000000000000000000000000000000000000815260040180806020018281038252600d8152602001807f496e76616c69642070686173650000000000000000000000000000000000000081525060200191505060405180910390fd5b6000600160003373ffffffffffffffffffffffffffffffffffffffff1673ffffffffffffffffffffffffffffffffffffffff16815260200190815260200160002060010154116109e4576040517f08c379a00000000000000000000000000000000000000000000000000000000081526004018080602001828103825260198152602001807f596f7520646f6e74206861766520616e792077696e6e696e670000000000000081525060200191505060405180910390fd5b600047600160003373ffffffffffffffffffffffffffffffffffffffff1673ffffffffffffffffffffffffffffffffffffffff168152602001908152602001600020600101541115610a3857479050610a7e565b600160003373ffffffffffffffffffffffffffffffffffffffff1673ffffffffffffffffffffffffffffffffffffffff1681526020019081526020016000206001015490505b3373ffffffffffffffffffffffffffffffffffffffff166108fc600160003373ffffffffffffffffffffffffffffffffffffffff1673ffffffffffffffffffffffffffffffffffffffff168152602001908152602001600020600101549081150290604051600060405180830381858888f19350505050158015610b06573d6000803e3d6000fd5b506000600160003373ffffffffffffffffffffffffffffffffffffffff1673ffffffffffffffffffffffffffffffffffffffff1681526020019081526020016000206001018190555060046000806101000a81548160ff02191690836004811115610b6d57fe5b02179055507f875827912964972bc7f37f95730aee48894bf63c3f6e9862d43af4578064df3347600160003373ffffffffffffffffffffffffffffffffffffffff1673ffffffffffffffffffffffffffffffffffffffff168152602001908152602001600020600101543373ffffffffffffffffffffffffffffffffffffffff163160008054906101000a900460ff166004811115610c0857fe5b6040518085815260200184815260200183815260200182815260200194505050505060405180910390a15050565b600660009054906101000a900473ffffffffffffffffffffffffffffffffffffffff1681565b600a341015610cb6576040517f08c379a0000000000000000000000000000000000000000000000000000000008152600401808060200182810382526022815260200180611b7d6022913960400191505060405180910390fd5b473410610d0e576040517f08c379a0000000000000000000000000000000000000000000000000000000008152600401808060200182810382526033815260200180611b9f6033913960400191505060405180910390fd5b60016004811115610d1b57fe5b60008054906101000a900460ff166004811115610d3457fe5b14610da7576040517f08c379a000000000000000000000000000000000000000000000000000000000815260040180806020018281038252600d8152602001807f496e76616c69642070686173650000000000000000000000000000000000000081525060200191505060405180910390fd5b6000349050600660009054906101000a900473ffffffffffffffffffffffffffffffffffffffff1673ffffffffffffffffffffffffffffffffffffffff166108fc349081150290604051600060405180830381858888f19350505050158015610e14573d6000803e3d6000fd5b5080600160003373ffffffffffffffffffffffffffffffffffffffff1673ffffffffffffffffffffffffffffffffffffffff1681526020019081526020016000206001016000828254019250508190555060026000806101000a81548160ff02191690836004811115610e8357fe5b02179055507f875827912964972bc7f37f95730aee48894bf63c3f6e9862d43af4578064df3347600160003373ffffffffffffffffffffffffffffffffffffffff1673ffffffffffffffffffffffffffffffffffffffff168152602001908152602001600020600101543373ffffffffffffffffffffffffffffffffffffffff163160008054906101000a900460ff166004811115610f1e57fe5b6040518085815260200184815260200183815260200182815260200194505050505060405180910390a150565b600460009054906101000a900473ffffffffffffffffffffffffffffffffffffffff1673ffffffffffffffffffffffffffffffffffffffff163373ffffffffffffffffffffffffffffffffffffffff161415610fa657600080fd5b6000600460009054906101000a900473ffffffffffffffffffffffffffffffffffffffff1673ffffffffffffffffffffffffffffffffffffffff163111610fec57600080fd5b60026004811115610ff957fe5b60008054906101000a900460ff16600481111561101257fe5b14611085576040517f08c379a000000000000000000000000000000000000000000000000000000000815260040180806020018281038252600d8152602001807f496e76616c69642070686173650000000000000000000000000000000000000081525060200191505060405180910390fd5b600047116110fb576040517f08c379a00000000000000000000000000000000000000000000000000000000081526004018080602001828103825260128152602001807f4f776e657220686173206e6f206d6f6e6579000000000000000000000000000081525060200191505060405180910390fd5b6000600160003373ffffffffffffffffffffffffffffffffffffffff1673ffffffffffffffffffffffffffffffffffffffff168152602001908152602001600020600101541161114757fe5b6000600881111561115457fe5b811015801561116e575060088081111561116a57fe5b8111155b61117457fe5b6000600881111561118157fe5b821015801561119b575060088081111561119757fe5b8211155b6111a157fe5b60008060088111156111af57fe5b90506000600160088111156111c057fe5b9050600660088111156111cf57fe5b8414806111e75750600460088111156111e457fe5b84145b1561120057600260088111156111f957fe5b9150611239565b6007600881111561120d57fe5b841415611228576004600881111561122157fe5b9150611238565b6001600881111561123557fe5b91505b5b82841461147b5760036000806101000a81548160ff0219169083600481111561125e57fe5b0217905550670de0b6b3a76400008202600160003373ffffffffffffffffffffffffffffffffffffffff1673ffffffffffffffffffffffffffffffffffffffff168152602001908152602001600020600101600082825403925050819055506000600160003373ffffffffffffffffffffffffffffffffffffffff1673ffffffffffffffffffffffffffffffffffffffff168152602001908152602001600020600101541161132b5760016000806101000a81548160ff0219169083600481111561132557fe5b02179055505b81905080600160003373ffffffffffffffffffffffffffffffffffffffff1673ffffffffffffffffffffffffffffffffffffffff168152602001908152602001600020600201819055507fe09c1055ce4d49f1de7ab9b7212776ff6f7d5aa4ffd8cf729ced9abd2e65582147600160003373ffffffffffffffffffffffffffffffffffffffff1673ffffffffffffffffffffffffffffffffffffffff168152602001908152602001600020600101543373ffffffffffffffffffffffffffffffffffffffff16318460008054906101000a900460ff16600481111561140c57fe5b6040518086815260200185815260200184815260200180602001848152602001838152602001828103825260088152602001807f6e65676174697665000000000000000000000000000000000000000000000000815250602001965050505050505060405180910390a16115d1565b3373ffffffffffffffffffffffffffffffffffffffff166108fc670de0b6b3a764000084029081150290604051600060405180830381858888f193505050501580156114cb573d6000803e3d6000fd5b508190507fe09c1055ce4d49f1de7ab9b7212776ff6f7d5aa4ffd8cf729ced9abd2e65582147600160003373ffffffffffffffffffffffffffffffffffffffff1673ffffffffffffffffffffffffffffffffffffffff168152602001908152602001600020600101543373ffffffffffffffffffffffffffffffffffffffff16318460008054906101000a900460ff16600481111561156657fe5b6040518086815260200185815260200184815260200180602001848152602001838152602001828103825260088152602001807f706f736974697665000000000000000000000000000000000000000000000000815250602001965050505050505060405180910390a15b50505050565b60026000806101000a81548160ff021916908360048111156115f557fe5b02179055506000600160003373ffffffffffffffffffffffffffffffffffffffff1673ffffffffffffffffffffffffffffffffffffffff168152602001908152602001600020600201819055507f875827912964972bc7f37f95730aee48894bf63c3f6e9862d43af4578064df3347600160003373ffffffffffffffffffffffffffffffffffffffff1673ffffffffffffffffffffffffffffffffffffffff168152602001908152602001600020600101543373ffffffffffffffffffffffffffffffffffffffff163160008054906101000a900460ff1660048111156116d857fe5b6040518085815260200184815260200183815260200182815260200194505050505060405180910390a1565b6000600460009054906101000a900473ffffffffffffffffffffffffffffffffffffffff1673ffffffffffffffffffffffffffffffffffffffff163373ffffffffffffffffffffffffffffffffffffffff16141561176157600080fd5b6000600481111561176e57fe5b60008054906101000a900460ff16600481111561178757fe5b146117fa576040517f08c379a000000000000000000000000000000000000000000000000000000000815260040180806020018281038252600d8152602001807f496e76616c69642070686173650000000000000000000000000000000000000081525060200191505060405180910390fd5b6000801b600160003373ffffffffffffffffffffffffffffffffffffffff1673ffffffffffffffffffffffffffffffffffffffff16815260200190815260200160002060000154146118b4576040517f08c379a000000000000000000000000000000000000000000000000000000000815260040180806020018281038252601c8152602001807f70617373776f726420616c726561647920696e697469616c697365640000000081525060200191505060405180910390fd5b60016000806101000a81548160ff021916908360048111156118d257fe5b0217905550816007546040516020018083805190602001908083835b6020831061191157805182526020820191506020810190506020830392506118ee565b6001836020036101000a0380198251168184511680821785525050505050509050018281526020019250505060405160208183030381529060405280519060200120600160003373ffffffffffffffffffffffffffffffffffffffff1673ffffffffffffffffffffffffffffffffffffffff168152602001908152602001600020600001819055507fa7ec6c860b0562da7ca25e276f719d2ad4b41cb3419a54d278bc3310eb402bef60008054906101000a900460ff1660048111156119d357fe5b6040518082815260200191505060405180910390a1919050565b565b600560009054906101000a900473ffffffffffffffffffffffffffffffffffffffff1681565b600460009054906101000a900473ffffffffffffffffffffffffffffffffffffffff1673ffffffffffffffffffffffffffffffffffffffff163373ffffffffffffffffffffffffffffffffffffffff161415611a7057600080fd5b600480811115611a7c57fe5b60008054906101000a900460ff166004811115611a9557fe5b14611b08576040517f08c379a000000000000000000000000000000000000000000000000000000000815260040180806020018281038252600d8152602001807f496e76616c69642070686173650000000000000000000000000000000000000081525060200191505060405180910390fd5b60016000806101000a81548160ff02191690836004811115611b2657fe5b02179055507fac6dc5afc7288de486f031af859ae136dac47ca4bfafc2ac097d9ea867e189b060008054906101000a900460ff166004811115611b6557fe5b6040518082815260200191505060405180910390a156fe42657474696e672076616c75652073686f756c642062652061746c6561737420313042657474696e672076616c75652073686f756c64206265206c657373207468616e207468652062657474696e672076616c7565a2646970667358221220fc4bc58ef491635df4fb9fc28db18fce52d7dd0beea665c95db3ff0698d2097e64736f6c634300060c0033",
  "immutableReferences": {},
  "source": "//SPDX-License-Identifier: UNLICENSED\r\npragma solidity >=0.4.22 <=0.6.12;\r\n\r\ncontract BettingLite \r\n{\r\n    \r\n\t//structure composed of participants, has the information of the maount of betting and points he won\r\n    struct participants\r\n    { \r\n        bytes32 password;\r\n        uint bettingAmount;\r\n        uint pendingAmount;\r\n    } \r\n    \r\n    enum Phase {INIT, INVEST, BETTING, PAYUP, DONE}\r\n    enum Score {ZERO, ONE, TWO, THREE, FOUR, FIVE, SIX, SEVEN, EIGHT}\r\n    \r\n    Phase public currentPhase = Phase.INIT;\r\n    \r\n\t//All the participants are mapped to an address\r\n    mapping ( address => participants) result; \r\n    \r\n    Score score;\r\n    uint minBet;\r\n    address payable owner;\r\n    address payable public reciever;\r\n    address payable public beneficiary;\r\n    bytes32 salt;\r\n    \r\n    event Balances(uint arbitarBalance, uint bettingValue, uint playerBalance, uint phase);\r\n    event BalancesWithMsg(uint arbitarBalance, uint bettingValue, uint playerBalance, string msg , uint256 value, uint phase);\r\n    event Message(string val, string message);\r\n    event InvestingStarted(uint phase);\r\n    event BettingStarted(uint phase);\r\n    event BettingDone(uint phase);\r\n    event CurrentPhase(uint phase);\r\n    event OwnerInfo(address ownerAccount, address ownerAddress);\r\n    event Pending(uint amount);\r\n\r\n    //constructor initialises the betting values and points of the organizer by 100 for participation\r\n    constructor(bytes32 _salt, address payable recipientAddress) public payable\r\n    {\r\n        owner = address(this);\r\n        reciever = recipientAddress;\r\n        beneficiary = msg.sender;\r\n        score = Score.ZERO;\r\n        currentPhase = Phase.INIT;\r\n        minBet = 20;\r\n        salt = _salt;\r\n    }\r\n    \r\n    //Fallback functions\r\n    receive () external payable {\r\n    \r\n    }\r\n\r\n    function deposit() public payable {\r\n\r\n    }\r\n\r\n\t//modifier functions\r\n    modifier _ownerOnly() \r\n    {\r\n        require(msg.sender == owner);\r\n        _;\r\n    }\r\n    \r\n    modifier _playerOnly() \r\n    {\r\n        require(msg.sender != owner);\r\n        _;\r\n    }\r\n\r\n    modifier _ownerHasMoney() {\r\n        require(owner.balance  > 0);\r\n        _;    \r\n    }\r\n    \r\n    //Step 1 create password, returns phase as betting\r\n    function createPassword (string memory password) _playerOnly public returns (bool)\r\n    {\r\n        require(currentPhase == Phase.INIT, \"Invalid phase\");\r\n        require((result[msg.sender].password == 0x0000000000000000000000000000000000000000000000000000000000000000), \"password already initialised\");\r\n        currentPhase = Phase.INVEST;\r\n        result[msg.sender].password = keccak256(abi.encodePacked(password, salt));\r\n        emit InvestingStarted(uint(currentPhase));\r\n    }\r\n\r\n    //Step 2 Enter the betting value, returns balances of both players along with the betting value\r\n    /*function bettingValue(uint val) public {\r\n        require(val >= 10, \"Betting value should be atleast 10\");\r\n        require(val < address(this).balance, \"Betting value should be less than the betting value\");\r\n        require(currentPhase == Phase.INVEST, \"Invalid phase\");\r\n        val = val * 1000000000000000000;\r\n        result[msg.sender].bettingAmount += val;\r\n        currentPhase = Phase.BETTING;\r\n        emit Balances(address(this).balance, result[msg.sender].bettingAmount, msg.sender.balance, uint(currentPhase));\r\n    }*/\r\n\r\n    //Step 2 Enter the betting value, returns balances of both players along with the betting value\r\n    function betting() public payable {\r\n        require(msg.value >= 10, \"Betting value should be atleast 10\");\r\n        require(msg.value < address(this).balance, \"Betting value should be less than the betting value\");\r\n        require(currentPhase == Phase.INVEST, \"Invalid phase\");\r\n        uint val = msg.value;\r\n        beneficiary.transfer(msg.value);\r\n        result[msg.sender].bettingAmount += val;\r\n        currentPhase = Phase.BETTING;\r\n        emit Balances(address(this).balance, result[msg.sender].bettingAmount, msg.sender.balance, uint(currentPhase));\r\n    }\r\n\r\n    //Step 3 two parameters which decides if the predicted value of the user is correct, he is either rewared or penalized based on this\r\n    function predictWinning(uint256 prediction, uint256 actualValue) _playerOnly _ownerHasMoney public \r\n    {\r\n        require(currentPhase == Phase.BETTING, \"Invalid phase\");\r\n        require(address(this).balance > 0, \"Owner has no money\");\r\n        assert(result[msg.sender].bettingAmount > 0);\r\n        assert(actualValue >= uint256(Score.ZERO) && actualValue <= uint256(Score.EIGHT));\r\n        assert(prediction >= uint256(Score.ZERO) && prediction <= uint256(Score.EIGHT));\r\n        \r\n        uint256 point = uint256(Score.ZERO);\r\n        uint256 value = uint256(Score.ONE);\r\n        \r\n        if(prediction == uint256(Score.SIX) || prediction == uint256(Score.FOUR)) \r\n        {\r\n            point = uint256(Score.TWO);\r\n        }\r\n        else if(prediction == uint256(Score.SEVEN)) \r\n        {\r\n            //to represent wicket\r\n            point = uint256(Score.FOUR);\r\n        }\r\n        else \r\n        {\r\n            point = uint256(Score.ONE);\r\n        }\r\n        \r\n        if(prediction != actualValue) \r\n        {\r\n            currentPhase = Phase.PAYUP;\r\n            result[msg.sender].bettingAmount -= point * 1000000000000000000; \r\n            if(result[msg.sender].bettingAmount <= 0) {\r\n                currentPhase = Phase.INVEST;\r\n            }\r\n            value = point;\r\n            result[msg.sender].pendingAmount = value;\r\n            emit BalancesWithMsg(address(this).balance, result[msg.sender].bettingAmount, msg.sender.balance,\"negative\", value, uint(currentPhase));\r\n        }\r\n        else {\r\n            msg.sender.transfer( point * 1000000000000000000);\r\n            value = point;\r\n            emit BalancesWithMsg(address(this).balance, result[msg.sender].bettingAmount, msg.sender.balance, \"positive\", value, uint(currentPhase));\r\n        }\r\n    }\r\n\r\n    //Step 4 after paying it, we move on to betting phase again\r\n    function settleUp() public payable {\r\n        currentPhase = Phase.BETTING;\r\n        result[msg.sender].pendingAmount = 0;\r\n        emit Balances(address(this).balance, result[msg.sender].bettingAmount, msg.sender.balance, uint(currentPhase));\r\n    }\r\n\r\n    //Step 5 final winning amount can be withdrawn by the player\r\n    function withdraw(string memory password) _playerOnly _ownerHasMoney public \r\n    {\r\n        require(result[msg.sender].password == keccak256(abi.encodePacked(password, salt)),\"invalid password\");\r\n        require(currentPhase == Phase.BETTING, \"Invalid phase\");\r\n        require(result[msg.sender].bettingAmount > 0, \"You dont have any winning\");\r\n        uint amount = 0;\r\n        if(result[msg.sender].bettingAmount > address(this).balance) {\r\n            amount = address(this).balance;\r\n        }\r\n        else {\r\n            amount = result[msg.sender].bettingAmount;\r\n        }\r\n        msg.sender.transfer(result[msg.sender].bettingAmount);\r\n        result[msg.sender].bettingAmount = 0;\r\n        currentPhase = Phase.DONE;\r\n        emit Balances(address(this).balance, result[msg.sender].bettingAmount, msg.sender.balance, uint(currentPhase));\r\n    }\r\n\t\r\n    //Step 6 retry the betting\r\n    function retry() _playerOnly public {\r\n        require(currentPhase == Phase.DONE, \"Invalid phase\");\r\n        currentPhase = Phase.INVEST;\r\n        emit BettingStarted(uint(currentPhase));\r\n    }\r\n\r\n    //Step 7 when the betting is finished\r\n    function closeBetting() public _playerOnly {\r\n        selfdestruct(msg.sender);\r\n    }\r\n\r\n    //Anscillary functions\r\n    function getBalances() public {\r\n        emit Balances(address(this).balance, result[msg.sender].bettingAmount ,msg.sender.balance, uint(currentPhase));\r\n    }\r\n\r\n    function getPending() public {\r\n        emit Pending(result[msg.sender].pendingAmount);\r\n    }\r\n\r\n    function getOwnerAddress() public returns (address) {\r\n        emit OwnerInfo(owner, beneficiary);\r\n    }\r\n}",
  "sourcePath": "D:/Git/Active projects/BlockChainProject/BettingLite-contract/contracts/BettingLite.sol",
  "compiler": {
    "name": "solc",
    "version": "0.6.12+commit.27d51765.Emscripten.clang"
  },
  "schemaVersion": "3.3.1",
  "updatedAt": "2020-11-23T23:26:51.339Z",
  "networkType": "ethereum",
  "devdoc": {
    "kind": "dev",
    "methods": {},
    "version": 1
  },
  "userdoc": {
    "kind": "user",
    "methods": {},
    "version": 1
  }
}