{
  "contractName": "BettingLite",
  "abi": [
    {
      "inputs": [
        {
          "internalType": "bytes32",
          "name": "_salt",
          "type": "bytes32"
        },
        {
          "internalType": "address payable",
          "name": "recipientAddress",
          "type": "address"
        }
      ],
      "stateMutability": "payable",
      "type": "constructor",
      "payable": true
    },
    {
      "anonymous": false,
      "inputs": [
        {
          "indexed": false,
          "internalType": "uint256",
          "name": "arbitarBalance",
          "type": "uint256"
        },
        {
          "indexed": false,
          "internalType": "uint256",
          "name": "bettingValue",
          "type": "uint256"
        },
        {
          "indexed": false,
          "internalType": "uint256",
          "name": "playerBalance",
          "type": "uint256"
        }
      ],
      "name": "Balances",
      "type": "event"
    },
    {
      "anonymous": false,
      "inputs": [
        {
          "indexed": false,
          "internalType": "uint256",
          "name": "arbitarBalance",
          "type": "uint256"
        },
        {
          "indexed": false,
          "internalType": "uint256",
          "name": "bettingValue",
          "type": "uint256"
        },
        {
          "indexed": false,
          "internalType": "uint256",
          "name": "playerBalance",
          "type": "uint256"
        },
        {
          "indexed": false,
          "internalType": "string",
          "name": "msg",
          "type": "string"
        },
        {
          "indexed": false,
          "internalType": "uint256",
          "name": "value",
          "type": "uint256"
        }
      ],
      "name": "BalancesWithMsg",
      "type": "event"
    },
    {
      "anonymous": false,
      "inputs": [],
      "name": "BettingDone",
      "type": "event"
    },
    {
      "anonymous": false,
      "inputs": [
        {
          "indexed": false,
          "internalType": "string",
          "name": "msg",
          "type": "string"
        }
      ],
      "name": "BettingStarted",
      "type": "event"
    },
    {
      "anonymous": false,
      "inputs": [
        {
          "indexed": false,
          "internalType": "string",
          "name": "result",
          "type": "string"
        },
        {
          "indexed": false,
          "internalType": "uint256",
          "name": "winValue",
          "type": "uint256"
        }
      ],
      "name": "afterPrediction",
      "type": "event"
    },
    {
      "inputs": [],
      "name": "beneficiary",
      "outputs": [
        {
          "internalType": "address payable",
          "name": "",
          "type": "address"
        }
      ],
      "stateMutability": "view",
      "type": "function",
      "constant": true
    },
    {
      "inputs": [],
      "name": "currentPhase",
      "outputs": [
        {
          "internalType": "enum BettingLite.Phase",
          "name": "",
          "type": "uint8"
        }
      ],
      "stateMutability": "view",
      "type": "function",
      "constant": true
    },
    {
      "inputs": [],
      "name": "reciever",
      "outputs": [
        {
          "internalType": "address payable",
          "name": "",
          "type": "address"
        }
      ],
      "stateMutability": "view",
      "type": "function",
      "constant": true
    },
    {
      "stateMutability": "payable",
      "type": "receive",
      "payable": true
    },
    {
      "inputs": [],
      "name": "deposit",
      "outputs": [],
      "stateMutability": "payable",
      "type": "function",
      "payable": true
    },
    {
      "inputs": [
        {
          "internalType": "uint256",
          "name": "val",
          "type": "uint256"
        }
      ],
      "name": "bettingValue",
      "outputs": [],
      "stateMutability": "nonpayable",
      "type": "function"
    },
    {
      "inputs": [],
      "name": "settled",
      "outputs": [],
      "stateMutability": "nonpayable",
      "type": "function"
    },
    {
      "inputs": [],
      "name": "getCurrentPhase",
      "outputs": [
        {
          "internalType": "enum BettingLite.Phase",
          "name": "",
          "type": "uint8"
        }
      ],
      "stateMutability": "view",
      "type": "function",
      "constant": true
    },
    {
      "inputs": [],
      "name": "getOwnerAddress",
      "outputs": [
        {
          "internalType": "address",
          "name": "",
          "type": "address"
        }
      ],
      "stateMutability": "view",
      "type": "function",
      "constant": true
    },
    {
      "inputs": [
        {
          "internalType": "string",
          "name": "password",
          "type": "string"
        }
      ],
      "name": "createPassword",
      "outputs": [
        {
          "internalType": "bool",
          "name": "",
          "type": "bool"
        }
      ],
      "stateMutability": "nonpayable",
      "type": "function"
    },
    {
      "inputs": [
        {
          "internalType": "string",
          "name": "password",
          "type": "string"
        }
      ],
      "name": "verifyPassword",
      "outputs": [
        {
          "internalType": "bool",
          "name": "",
          "type": "bool"
        }
      ],
      "stateMutability": "view",
      "type": "function",
      "constant": true
    },
    {
      "inputs": [],
      "name": "retry",
      "outputs": [],
      "stateMutability": "nonpayable",
      "type": "function"
    },
    {
      "inputs": [],
      "name": "getBalances",
      "outputs": [],
      "stateMutability": "nonpayable",
      "type": "function"
    },
    {
      "inputs": [
        {
          "internalType": "string",
          "name": "password",
          "type": "string"
        }
      ],
      "name": "placeBet",
      "outputs": [
        {
          "internalType": "uint256",
          "name": "",
          "type": "uint256"
        }
      ],
      "stateMutability": "payable",
      "type": "function",
      "payable": true
    },
    {
      "inputs": [
        {
          "internalType": "uint256",
          "name": "prediction",
          "type": "uint256"
        },
        {
          "internalType": "uint256",
          "name": "actualValue",
          "type": "uint256"
        }
      ],
      "name": "predictWinning",
      "outputs": [],
      "stateMutability": "nonpayable",
      "type": "function"
    },
    {
      "inputs": [],
      "name": "getPlayerPoints",
      "outputs": [
        {
          "internalType": "uint256",
          "name": "",
          "type": "uint256"
        }
      ],
      "stateMutability": "view",
      "type": "function",
      "constant": true
    },
    {
      "inputs": [],
      "name": "getOwnerPoints",
      "outputs": [
        {
          "internalType": "uint256",
          "name": "",
          "type": "uint256"
        }
      ],
      "stateMutability": "view",
      "type": "function",
      "constant": true
    },
    {
      "inputs": [],
      "name": "withdraw",
      "outputs": [],
      "stateMutability": "nonpayable",
      "type": "function"
    },
    {
      "inputs": [],
      "name": "closeBetting",
      "outputs": [],
      "stateMutability": "nonpayable",
      "type": "function"
    }
  ],
  "bytecode": "0x608060405260008060006101000a81548160ff0219169083600381111561002257fe5b0217905550604051611eeb380380611eeb8339818101604052604081101561004957600080fd5b81019080805190602001909291908051906020019092919050505030600460006101000a81548173ffffffffffffffffffffffffffffffffffffffff021916908373ffffffffffffffffffffffffffffffffffffffff16021790555080600560006101000a81548173ffffffffffffffffffffffffffffffffffffffff021916908373ffffffffffffffffffffffffffffffffffffffff16021790555033600660006101000a81548173ffffffffffffffffffffffffffffffffffffffff021916908373ffffffffffffffffffffffffffffffffffffffff1602179055506000600260006101000a81548160ff0219169083600881111561014657fe5b021790555060008060006101000a81548160ff0219169083600381111561016957fe5b02179055506014600381905550816007819055505050611d5d8061018e6000396000f3fe60806040526004361061010c5760003560e01c80638f77583911610095578063ac00235311610064578063ac0023531461056d578063d0e30db014610598578063dc2d3f82146105a2578063f4b0b756146105cd578063fae8fb2c1461060e57610113565b80638f7758391461037357806397bfeb881461038a5780639abb655114610459578063a3a40ea51461053757610113565b806338af3eed116100dc57806338af3eed146101bd5780633ccfd60b146101fe57806343589db81461021557806344555a39146102f35780634a18a8ce1461033857610113565b8062113e0814610118578063055ad42e1461012f5780630c4f65bd1461016557806315ac534d146101a657610113565b3661011357005b600080fd5b34801561012457600080fd5b5061012d610625565b005b34801561013b57600080fd5b506101446106c7565b6040518082600381111561015457fe5b815260200191505060405180910390f35b34801561017157600080fd5b5061017a6106d8565b604051808273ffffffffffffffffffffffffffffffffffffffff16815260200191505060405180910390f35b3480156101b257600080fd5b506101bb610702565b005b3480156101c957600080fd5b506101d261080e565b604051808273ffffffffffffffffffffffffffffffffffffffff16815260200191505060405180910390f35b34801561020a57600080fd5b50610213610834565b005b34801561022157600080fd5b506102db6004803603602081101561023857600080fd5b810190808035906020019064010000000081111561025557600080fd5b82018360208201111561026757600080fd5b8035906020019184600183028401116401000000008311171561028957600080fd5b91908080601f016020809104026020016040519081016040528093929190818152602001838380828437600081840152601f19601f820116905080830192505050505050509192919290505050610bbc565b60405180821515815260200191505060405180910390f35b3480156102ff57600080fd5b506103366004803603604081101561031657600080fd5b810190808035906020019092919080359060200190929190505050610d79565b005b34801561034457600080fd5b506103716004803603602081101561035b57600080fd5b810190808035906020019092919050505061126f565b005b34801561037f57600080fd5b50610388611462565b005b610443600480360360208110156103a057600080fd5b81019080803590602001906401000000008111156103bd57600080fd5b8201836020820111156103cf57600080fd5b803590602001918460018302840111640100000000831117156103f157600080fd5b91908080601f016020809104026020016040519081016040528093929190818152602001838380828437600081840152601f19601f8201169050808301925050505050505091929192905050506114ef565b6040518082815260200191505060405180910390f35b34801561046557600080fd5b5061051f6004803603602081101561047c57600080fd5b810190808035906020019064010000000081111561049957600080fd5b8201836020820111156104ab57600080fd5b803590602001918460018302840111640100000000831117156104cd57600080fd5b91908080601f016020809104026020016040519081016040528093929190818152602001838380828437600081840152601f19601f82011690508083019250505050505050919291929050505061184d565b60405180821515815260200191505060405180910390f35b34801561054357600080fd5b5061054c611b4f565b6040518082600381111561055c57fe5b815260200191505060405180910390f35b34801561057957600080fd5b50610582611b65565b6040518082815260200191505060405180910390f35b6105a0611b84565b005b3480156105ae57600080fd5b506105b7611b86565b6040518082815260200191505060405180910390f35b3480156105d957600080fd5b506105e2611bc7565b604051808273ffffffffffffffffffffffffffffffffffffffff16815260200191505060405180910390f35b34801561061a57600080fd5b50610623611bed565b005b7fe0d4c4e93b3af3c107fc80a77d0fd282fd2ddbc75d68dcecf3f2261a8f00a1d447600160003373ffffffffffffffffffffffffffffffffffffffff1673ffffffffffffffffffffffffffffffffffffffff168152602001908152602001600020600101543373ffffffffffffffffffffffffffffffffffffffff163160405180848152602001838152602001828152602001935050505060405180910390a1565b60008054906101000a900460ff1681565b6000600460009054906101000a900473ffffffffffffffffffffffffffffffffffffffff16905090565b600460009054906101000a900473ffffffffffffffffffffffffffffffffffffffff1673ffffffffffffffffffffffffffffffffffffffff163373ffffffffffffffffffffffffffffffffffffffff16141561075d57600080fd5b60038081111561076957fe5b60008054906101000a900460ff16600381111561078257fe5b146107f5576040517f08c379a000000000000000000000000000000000000000000000000000000000815260040180806020018281038252600d8152602001807f496e76616c69642070686173650000000000000000000000000000000000000081525060200191505060405180910390fd5b3373ffffffffffffffffffffffffffffffffffffffff16ff5b600660009054906101000a900473ffffffffffffffffffffffffffffffffffffffff1681565b600460009054906101000a900473ffffffffffffffffffffffffffffffffffffffff1673ffffffffffffffffffffffffffffffffffffffff163373ffffffffffffffffffffffffffffffffffffffff16141561088f57600080fd5b6000600460009054906101000a900473ffffffffffffffffffffffffffffffffffffffff1673ffffffffffffffffffffffffffffffffffffffff1631116108d557600080fd5b600160038111156108e257fe5b60008054906101000a900460ff1660038111156108fb57fe5b1461096e576040517f08c379a000000000000000000000000000000000000000000000000000000000815260040180806020018281038252600d8152602001807f496e76616c69642070686173650000000000000000000000000000000000000081525060200191505060405180910390fd5b6000600160003373ffffffffffffffffffffffffffffffffffffffff1673ffffffffffffffffffffffffffffffffffffffff1681526020019081526020016000206001015411610a26576040517f08c379a00000000000000000000000000000000000000000000000000000000081526004018080602001828103825260198152602001807f596f7520646f6e74206861766520616e792077696e6e696e670000000000000081525060200191505060405180910390fd5b3373ffffffffffffffffffffffffffffffffffffffff166108fc600160003373ffffffffffffffffffffffffffffffffffffffff1673ffffffffffffffffffffffffffffffffffffffff168152602001908152602001600020600101549081150290604051600060405180830381858888f19350505050158015610aae573d6000803e3d6000fd5b506000600160003373ffffffffffffffffffffffffffffffffffffffff1673ffffffffffffffffffffffffffffffffffffffff1681526020019081526020016000206001018190555060036000806101000a81548160ff02191690836003811115610b1557fe5b02179055507fe0d4c4e93b3af3c107fc80a77d0fd282fd2ddbc75d68dcecf3f2261a8f00a1d447600160003373ffffffffffffffffffffffffffffffffffffffff1673ffffffffffffffffffffffffffffffffffffffff168152602001908152602001600020600101543373ffffffffffffffffffffffffffffffffffffffff163160405180848152602001838152602001828152602001935050505060405180910390a1565b6000600460009054906101000a900473ffffffffffffffffffffffffffffffffffffffff1673ffffffffffffffffffffffffffffffffffffffff163373ffffffffffffffffffffffffffffffffffffffff161415610c1957600080fd5b60016003811115610c2657fe5b60008054906101000a900460ff166003811115610c3f57fe5b14610cb2576040517f08c379a000000000000000000000000000000000000000000000000000000000815260040180806020018281038252600d8152602001807f496e76616c69642070686173650000000000000000000000000000000000000081525060200191505060405180910390fd5b816007546040516020018083805190602001908083835b60208310610cec5780518252602082019150602081019050602083039250610cc9565b6001836020036101000a0380198251168184511680821785525050505050509050018281526020019250505060405160208183030381529060405280519060200120600160003373ffffffffffffffffffffffffffffffffffffffff1673ffffffffffffffffffffffffffffffffffffffff16815260200190815260200160002060000154149050919050565b600460009054906101000a900473ffffffffffffffffffffffffffffffffffffffff1673ffffffffffffffffffffffffffffffffffffffff163373ffffffffffffffffffffffffffffffffffffffff161415610dd457600080fd5b6000600460009054906101000a900473ffffffffffffffffffffffffffffffffffffffff1673ffffffffffffffffffffffffffffffffffffffff163111610e1a57600080fd5b60016003811115610e2757fe5b60008054906101000a900460ff166003811115610e4057fe5b14610eb3576040517f08c379a000000000000000000000000000000000000000000000000000000000815260040180806020018281038252600d8152602001807f496e76616c69642070686173650000000000000000000000000000000000000081525060200191505060405180910390fd5b60003373ffffffffffffffffffffffffffffffffffffffff163111610ed457fe5b60006008811115610ee157fe5b8110158015610efb5750600880811115610ef757fe5b8111155b610f0157fe5b60006008811115610f0e57fe5b8210158015610f285750600880811115610f2457fe5b8211155b610f2e57fe5b6000806008811115610f3c57fe5b9050600060016008811115610f4d57fe5b905060066008811115610f5c57fe5b841480610f74575060046008811115610f7157fe5b84145b15610f8d5760026008811115610f8657fe5b9150610fc6565b60076008811115610f9a57fe5b841415610fb55760046008811115610fae57fe5b9150610fc5565b60016008811115610fc257fe5b91505b5b8284146111335760026000806101000a81548160ff02191690836003811115610feb57fe5b0217905550670de0b6b3a76400008202600160003373ffffffffffffffffffffffffffffffffffffffff1673ffffffffffffffffffffffffffffffffffffffff168152602001908152602001600020600101600082825403925050819055508190507f32f5283668b8e10acaece71a5404a8e703f22c0f22e72ab0c2ca2916f360f3f747600160003373ffffffffffffffffffffffffffffffffffffffff1673ffffffffffffffffffffffffffffffffffffffff168152602001908152602001600020600101543373ffffffffffffffffffffffffffffffffffffffff1631846040518085815260200184815260200183815260200180602001838152602001828103825260088152602001807f6e656761746976650000000000000000000000000000000000000000000000008152506020019550505050505060405180910390a1611269565b3373ffffffffffffffffffffffffffffffffffffffff166108fc670de0b6b3a764000084029081150290604051600060405180830381858888f19350505050158015611183573d6000803e3d6000fd5b508190507f32f5283668b8e10acaece71a5404a8e703f22c0f22e72ab0c2ca2916f360f3f747600160003373ffffffffffffffffffffffffffffffffffffffff1673ffffffffffffffffffffffffffffffffffffffff168152602001908152602001600020600101543373ffffffffffffffffffffffffffffffffffffffff1631846040518085815260200184815260200183815260200180602001838152602001828103825260088152602001807f706f7369746976650000000000000000000000000000000000000000000000008152506020019550505050505060405180910390a15b50505050565b600a8110156112c9576040517f08c379a0000000000000000000000000000000000000000000000000000000008152600401808060200182810382526022815260200180611d066022913960400191505060405180910390fd5b600160038111156112d657fe5b60008054906101000a900460ff1660038111156112ef57fe5b14611362576040517f08c379a000000000000000000000000000000000000000000000000000000000815260040180806020018281038252600d8152602001807f496e76616c69642070686173650000000000000000000000000000000000000081525060200191505060405180910390fd5b670de0b6b3a76400008102905080600160003373ffffffffffffffffffffffffffffffffffffffff1673ffffffffffffffffffffffffffffffffffffffff168152602001908152602001600020600101600082825401925050819055507fe0d4c4e93b3af3c107fc80a77d0fd282fd2ddbc75d68dcecf3f2261a8f00a1d447600160003373ffffffffffffffffffffffffffffffffffffffff1673ffffffffffffffffffffffffffffffffffffffff168152602001908152602001600020600101543373ffffffffffffffffffffffffffffffffffffffff163160405180848152602001838152602001828152602001935050505060405180910390a150565b60016000806101000a81548160ff0219169083600381111561148057fe5b02179055507fcd2a32c915edd3b3bf3dfd0dd0b03ad878fcfe3081f4d9f1ab6f63036ff064166040518080602001828103825260078152602001807f42657474696e670000000000000000000000000000000000000000000000000081525060200191505060405180910390a1565b6000600460009054906101000a900473ffffffffffffffffffffffffffffffffffffffff1673ffffffffffffffffffffffffffffffffffffffff163373ffffffffffffffffffffffffffffffffffffffff16141561154c57600080fd5b816007546040516020018083805190602001908083835b602083106115865780518252602082019150602081019050602083039250611563565b6001836020036101000a0380198251168184511680821785525050505050509050018281526020019250505060405160208183030381529060405280519060200120600160003373ffffffffffffffffffffffffffffffffffffffff1673ffffffffffffffffffffffffffffffffffffffff168152602001908152602001600020600001541461167e576040517f08c379a000000000000000000000000000000000000000000000000000000000815260040180806020018281038252600e8152602001807f57726f6e672070617373776f726400000000000000000000000000000000000081525060200191505060405180910390fd5b6001600381111561168b57fe5b60008054906101000a900460ff1660038111156116a457fe5b14611717576040517f08c379a000000000000000000000000000000000000000000000000000000000815260040180806020018281038252600d8152602001807f496e76616c69642070686173650000000000000000000000000000000000000081525060200191505060405180910390fd5b600354341161178e576040517f08c379a000000000000000000000000000000000000000000000000000000000815260040180806020018281038252601e8152602001807f73686f756c642073656e64206d6f72652074686174203130302077656973000081525060200191505060405180910390fd5b7fe0d4c4e93b3af3c107fc80a77d0fd282fd2ddbc75d68dcecf3f2261a8f00a1d447600160003373ffffffffffffffffffffffffffffffffffffffff1673ffffffffffffffffffffffffffffffffffffffff168152602001908152602001600020600101543373ffffffffffffffffffffffffffffffffffffffff163160405180848152602001838152602001828152602001935050505060405180910390a13373ffffffffffffffffffffffffffffffffffffffff16319050919050565b6000600460009054906101000a900473ffffffffffffffffffffffffffffffffffffffff1673ffffffffffffffffffffffffffffffffffffffff163373ffffffffffffffffffffffffffffffffffffffff1614156118aa57600080fd5b600060038111156118b757fe5b60008054906101000a900460ff1660038111156118d057fe5b14611943576040517f08c379a000000000000000000000000000000000000000000000000000000000815260040180806020018281038252600d8152602001807f496e76616c69642070686173650000000000000000000000000000000000000081525060200191505060405180910390fd5b6000801b600160003373ffffffffffffffffffffffffffffffffffffffff1673ffffffffffffffffffffffffffffffffffffffff16815260200190815260200160002060000154146119fd576040517f08c379a000000000000000000000000000000000000000000000000000000000815260040180806020018281038252601c8152602001807f70617373776f726420616c726561647920696e697469616c697365640000000081525060200191505060405180910390fd5b60016000806101000a81548160ff02191690836003811115611a1b57fe5b0217905550816007546040516020018083805190602001908083835b60208310611a5a5780518252602082019150602081019050602083039250611a37565b6001836020036101000a0380198251168184511680821785525050505050509050018281526020019250505060405160208183030381529060405280519060200120600160003373ffffffffffffffffffffffffffffffffffffffff1673ffffffffffffffffffffffffffffffffffffffff168152602001908152602001600020600001819055507fcd2a32c915edd3b3bf3dfd0dd0b03ad878fcfe3081f4d9f1ab6f63036ff064166040518080602001828103825260078152602001807f42657474696e670000000000000000000000000000000000000000000000000081525060200191505060405180910390a1919050565b60008060009054906101000a900460ff16905090565b60003373ffffffffffffffffffffffffffffffffffffffff1631905090565b565b6000600460009054906101000a900473ffffffffffffffffffffffffffffffffffffffff1673ffffffffffffffffffffffffffffffffffffffff1631905090565b600560009054906101000a900473ffffffffffffffffffffffffffffffffffffffff1681565b600460009054906101000a900473ffffffffffffffffffffffffffffffffffffffff1673ffffffffffffffffffffffffffffffffffffffff163373ffffffffffffffffffffffffffffffffffffffff161415611c4857600080fd5b600380811115611c5457fe5b60008054906101000a900460ff166003811115611c6d57fe5b14611ce0576040517f08c379a000000000000000000000000000000000000000000000000000000000815260040180806020018281038252600d8152602001807f496e76616c69642070686173650000000000000000000000000000000000000081525060200191505060405180910390fd5b60016000806101000a81548160ff02191690836003811115611cfe57fe5b021790555056fe42657474696e672076616c75652073686f756c642062652061746c65617374203130a264697066735822122087e5e9b748c81cd0a41e4fc2e62ce616bdf26f03b0f0514dc47c195c7514686964736f6c634300060c0033",
  "immutableReferences": {},
  "source": "//SPDX-License-Identifier: UNLICENSED\r\npragma solidity >=0.4.22 <=0.6.12;\r\n\r\ncontract BettingLite \r\n{\r\n    \r\n\t//structure composed of participants, has the information of the maount of betting and points he won\r\n    struct participants\r\n    { \r\n        bytes32 password;\r\n        uint bettingAmount;\r\n    } \r\n    \r\n    enum Phase {INIT, BETTING, PAYUP, DONE}\r\n    enum Score {ZERO, ONE, TWO, THREE, FOUR, FIVE, SIX, SEVEN, EIGHT}\r\n    \r\n    Phase public currentPhase = Phase.INIT;\r\n    \r\n\t//All the participants are mapped to an address\r\n    mapping ( address => participants) result; \r\n    \r\n    Score score;\r\n    uint minBet;\r\n    address payable owner;\r\n    address payable public reciever;\r\n    address payable public beneficiary;\r\n    bytes32 salt;\r\n    \r\n    event Balances(uint arbitarBalance, uint bettingValue, uint playerBalance);\r\n    event BalancesWithMsg(uint arbitarBalance, uint bettingValue, uint playerBalance, string msg , uint256 value);\r\n    event afterPrediction(string result, uint winValue);\r\n    event BettingStarted(string msg);\r\n    event BettingDone();\r\n\r\n    //constructor initialises the betting values and points of the organizer by 100 for participation\r\n    constructor(bytes32 _salt, address payable recipientAddress) public payable\r\n    {\r\n        owner = address(this);\r\n        reciever = recipientAddress;\r\n        beneficiary = msg.sender;\r\n        score = Score.ZERO;\r\n        currentPhase = Phase.INIT;\r\n        minBet = 20;\r\n        salt = _salt;\r\n    }\r\n    \r\n\t//modifier to be used only by the organiser\r\n    modifier _ownerOnly() \r\n    {\r\n        require(msg.sender == owner);\r\n        _;\r\n    }\r\n    \r\n\t//modifier to be used only by the player\r\n    modifier _playerOnly() \r\n    {\r\n        require(msg.sender != owner);\r\n        _;\r\n    }\r\n\r\n    modifier _ownerHasMoney() {\r\n        require(owner.balance  > 0);\r\n        _;    \r\n    }\r\n    \r\n    receive () external payable {\r\n    \r\n    }\r\n\r\n    function deposit() public payable {\r\n\r\n    }\r\n    \r\n\r\n    function bettingValue(uint val) public {\r\n        require(val >= 10, \"Betting value should be atleast 10\");\r\n        require(currentPhase == Phase.BETTING, \"Invalid phase\");\r\n        val = val * 1000000000000000000;\r\n        result[msg.sender].bettingAmount += val;\r\n        emit Balances(address(this).balance, result[msg.sender].bettingAmount, msg.sender.balance);\r\n    }\r\n\r\n    function settled() public {\r\n        currentPhase = Phase.BETTING;\r\n        emit BettingStarted(\"Betting\");\r\n    }\r\n\r\n    function getCurrentPhase() public view returns(Phase) {\r\n        return currentPhase; \r\n    }\r\n\r\n    function getOwnerAddress() public view returns (address) {\r\n        return owner;\r\n    }\r\n\t\r\n    function createPassword (string memory password) _playerOnly public returns (bool)\r\n    {\r\n        require(currentPhase == Phase.INIT, \"Invalid phase\");\r\n        require((result[msg.sender].password == 0x0000000000000000000000000000000000000000000000000000000000000000), \"password already initialised\");\r\n        currentPhase = Phase.BETTING;\r\n        result[msg.sender].password = keccak256(abi.encodePacked(password, salt));\r\n        emit BettingStarted(\"Betting\");\r\n    }\r\n    \r\n    function verifyPassword (string memory password) _playerOnly view public returns (bool)\r\n    {\r\n        require(currentPhase == Phase.BETTING, \"Invalid phase\");\r\n        return result[msg.sender].password == keccak256(abi.encodePacked(password, salt));\r\n    }\r\n\r\n    function retry() _playerOnly public {\r\n        require(currentPhase == Phase.DONE, \"Invalid phase\");\r\n        currentPhase = Phase.BETTING;\r\n    }\r\n    \r\n    function getBalances() public {\r\n        emit Balances(address(this).balance, result[msg.sender].bettingAmount ,msg.sender.balance);\r\n    }\r\n\r\n\t//the placebet function takes a nominal amount as wei for participation\r\n    function placeBet(string memory password) public payable _playerOnly returns (uint) \r\n    {\r\n        require(result[msg.sender].password == keccak256(abi.encodePacked(password, salt)), \"Wrong password\");\r\n        require(currentPhase == Phase.BETTING, \"Invalid phase\");\r\n        require(msg.value > minBet , \"should send more that 100 weis\");\r\n        // buyTokens(msg.value);\r\n        emit Balances(address(this).balance, result[msg.sender].bettingAmount, msg.sender.balance);\r\n        return msg.sender.balance;\r\n    }\r\n    \r\n\t//Takes two parameters which decides if the predicted value of the user is correct, he is either rewared or penalized based on this\r\n    function predictWinning(uint256 prediction, uint256 actualValue) _playerOnly _ownerHasMoney public \r\n    {\r\n        require(currentPhase == Phase.BETTING, \"Invalid phase\");\r\n        assert(msg.sender.balance > 0);\r\n        assert(actualValue >= uint256(Score.ZERO) && actualValue <= uint256(Score.EIGHT));\r\n        assert(prediction >= uint256(Score.ZERO) && prediction <= uint256(Score.EIGHT));\r\n        \r\n        uint256 point = uint256(Score.ZERO);\r\n        uint256 value = uint256(Score.ONE);\r\n        \r\n        if(prediction == uint256(Score.SIX) || prediction == uint256(Score.FOUR)) \r\n        {\r\n            point = uint256(Score.TWO);\r\n        }\r\n        else if(prediction == uint256(Score.SEVEN)) \r\n        {\r\n            //to represent wicket\r\n            point = uint256(Score.FOUR);\r\n        }\r\n        else \r\n        {\r\n            point = uint256(Score.ONE);\r\n        }\r\n        \r\n        if(prediction != actualValue) \r\n        {\r\n            currentPhase = Phase.PAYUP;\r\n            result[msg.sender].bettingAmount -= point * 1000000000000000000; \r\n            value = point;\r\n            emit BalancesWithMsg(address(this).balance, result[msg.sender].bettingAmount, msg.sender.balance,\"negative\", value);\r\n        }\r\n        else {\r\n            msg.sender.transfer( point * 1000000000000000000);\r\n            value = point;\r\n            emit BalancesWithMsg(address(this).balance, result[msg.sender].bettingAmount, msg.sender.balance, \"positive\", value);\r\n        }\r\n    }\r\n\r\n    function getPlayerPoints() public view returns (uint)\r\n    {\r\n        return msg.sender.balance;\r\n    }\r\n\r\n    function getOwnerPoints() public view returns (uint)\r\n    {\r\n        return owner.balance;\r\n    }\r\n    \r\n\t//The final winning amount can be withdrawn by the player\r\n    function withdraw() _playerOnly _ownerHasMoney public \r\n    {\r\n        require(currentPhase == Phase.BETTING, \"Invalid phase\");\r\n        require(result[msg.sender].bettingAmount > 0, \"You dont have any winning\");\r\n        msg.sender.transfer(result[msg.sender].bettingAmount);\r\n        result[msg.sender].bettingAmount = 0;\r\n        currentPhase = Phase.DONE;\r\n        emit Balances(address(this).balance, result[msg.sender].bettingAmount, msg.sender.balance);\r\n    }\r\n\r\n    function closeBetting() public _playerOnly {\r\n        require(currentPhase == Phase.DONE, \"Invalid phase\");\r\n        selfdestruct(msg.sender);\r\n        emit BettingDone();\r\n    }\r\n}",
  "sourcePath": "D:/Git/Active projects/BlockChainProject/BettingLite-contract/contracts/BettingLite.sol",
  "compiler": {
    "name": "solc",
    "version": "0.6.12+commit.27d51765.Emscripten.clang"
  },
  "schemaVersion": "3.3.1",
  "updatedAt": "2020-11-21T23:22:23.228Z",
  "networkType": "ethereum",
  "devdoc": {
    "kind": "dev",
    "methods": {},
    "version": 1
  },
  "userdoc": {
    "kind": "user",
    "methods": {},
    "version": 1
  }
}