{
  "contractName": "BettingLite",
  "abi": [
    {
      "inputs": [
        {
          "internalType": "bytes32",
          "name": "_salt",
          "type": "bytes32"
        },
        {
          "internalType": "address payable",
          "name": "recipientAddress",
          "type": "address"
        }
      ],
      "stateMutability": "payable",
      "type": "constructor",
      "payable": true
    },
    {
      "anonymous": false,
      "inputs": [
        {
          "indexed": false,
          "internalType": "uint256",
          "name": "arbitarBalance",
          "type": "uint256"
        },
        {
          "indexed": false,
          "internalType": "uint256",
          "name": "bettingValue",
          "type": "uint256"
        },
        {
          "indexed": false,
          "internalType": "uint256",
          "name": "playerBalance",
          "type": "uint256"
        },
        {
          "indexed": false,
          "internalType": "uint256",
          "name": "phase",
          "type": "uint256"
        }
      ],
      "name": "Balances",
      "type": "event"
    },
    {
      "anonymous": false,
      "inputs": [
        {
          "indexed": false,
          "internalType": "uint256",
          "name": "arbitarBalance",
          "type": "uint256"
        },
        {
          "indexed": false,
          "internalType": "uint256",
          "name": "bettingValue",
          "type": "uint256"
        },
        {
          "indexed": false,
          "internalType": "uint256",
          "name": "playerBalance",
          "type": "uint256"
        },
        {
          "indexed": false,
          "internalType": "string",
          "name": "msg",
          "type": "string"
        },
        {
          "indexed": false,
          "internalType": "uint256",
          "name": "value",
          "type": "uint256"
        },
        {
          "indexed": false,
          "internalType": "uint256",
          "name": "phase",
          "type": "uint256"
        }
      ],
      "name": "BalancesWithMsg",
      "type": "event"
    },
    {
      "anonymous": false,
      "inputs": [
        {
          "indexed": false,
          "internalType": "uint256",
          "name": "phase",
          "type": "uint256"
        }
      ],
      "name": "BettingDone",
      "type": "event"
    },
    {
      "anonymous": false,
      "inputs": [
        {
          "indexed": false,
          "internalType": "uint256",
          "name": "phase",
          "type": "uint256"
        }
      ],
      "name": "BettingStarted",
      "type": "event"
    },
    {
      "anonymous": false,
      "inputs": [
        {
          "indexed": false,
          "internalType": "uint256",
          "name": "phase",
          "type": "uint256"
        }
      ],
      "name": "CurrentPhase",
      "type": "event"
    },
    {
      "anonymous": false,
      "inputs": [
        {
          "indexed": false,
          "internalType": "uint256",
          "name": "phase",
          "type": "uint256"
        }
      ],
      "name": "InvestingStarted",
      "type": "event"
    },
    {
      "anonymous": false,
      "inputs": [
        {
          "indexed": false,
          "internalType": "string",
          "name": "val",
          "type": "string"
        },
        {
          "indexed": false,
          "internalType": "string",
          "name": "message",
          "type": "string"
        }
      ],
      "name": "Message",
      "type": "event"
    },
    {
      "anonymous": false,
      "inputs": [
        {
          "indexed": false,
          "internalType": "address",
          "name": "ownerAccount",
          "type": "address"
        },
        {
          "indexed": false,
          "internalType": "address",
          "name": "ownerAddress",
          "type": "address"
        }
      ],
      "name": "OwnerInfo",
      "type": "event"
    },
    {
      "inputs": [],
      "name": "beneficiary",
      "outputs": [
        {
          "internalType": "address payable",
          "name": "",
          "type": "address"
        }
      ],
      "stateMutability": "view",
      "type": "function",
      "constant": true
    },
    {
      "inputs": [],
      "name": "currentPhase",
      "outputs": [
        {
          "internalType": "enum BettingLite.Phase",
          "name": "",
          "type": "uint8"
        }
      ],
      "stateMutability": "view",
      "type": "function",
      "constant": true
    },
    {
      "inputs": [],
      "name": "reciever",
      "outputs": [
        {
          "internalType": "address payable",
          "name": "",
          "type": "address"
        }
      ],
      "stateMutability": "view",
      "type": "function",
      "constant": true
    },
    {
      "stateMutability": "payable",
      "type": "receive",
      "payable": true
    },
    {
      "inputs": [],
      "name": "deposit",
      "outputs": [],
      "stateMutability": "payable",
      "type": "function",
      "payable": true
    },
    {
      "inputs": [
        {
          "internalType": "string",
          "name": "password",
          "type": "string"
        }
      ],
      "name": "createPassword",
      "outputs": [
        {
          "internalType": "bool",
          "name": "",
          "type": "bool"
        }
      ],
      "stateMutability": "nonpayable",
      "type": "function"
    },
    {
      "inputs": [
        {
          "internalType": "uint256",
          "name": "val",
          "type": "uint256"
        }
      ],
      "name": "bettingValue",
      "outputs": [],
      "stateMutability": "nonpayable",
      "type": "function"
    },
    {
      "inputs": [
        {
          "internalType": "uint256",
          "name": "prediction",
          "type": "uint256"
        },
        {
          "internalType": "uint256",
          "name": "actualValue",
          "type": "uint256"
        }
      ],
      "name": "predictWinning",
      "outputs": [],
      "stateMutability": "nonpayable",
      "type": "function"
    },
    {
      "inputs": [],
      "name": "settleUp",
      "outputs": [],
      "stateMutability": "nonpayable",
      "type": "function"
    },
    {
      "inputs": [
        {
          "internalType": "string",
          "name": "password",
          "type": "string"
        }
      ],
      "name": "withdraw",
      "outputs": [],
      "stateMutability": "nonpayable",
      "type": "function"
    },
    {
      "inputs": [],
      "name": "retry",
      "outputs": [],
      "stateMutability": "nonpayable",
      "type": "function"
    },
    {
      "inputs": [],
      "name": "closeBetting",
      "outputs": [],
      "stateMutability": "nonpayable",
      "type": "function"
    },
    {
      "inputs": [],
      "name": "getBalances",
      "outputs": [],
      "stateMutability": "nonpayable",
      "type": "function"
    },
    {
      "inputs": [],
      "name": "getOwnerAddress",
      "outputs": [
        {
          "internalType": "address",
          "name": "",
          "type": "address"
        }
      ],
      "stateMutability": "nonpayable",
      "type": "function"
    }
  ],
  "bytecode": "0x608060405260008060006101000a81548160ff0219169083600481111561002257fe5b0217905550604051611c60380380611c608339818101604052604081101561004957600080fd5b81019080805190602001909291908051906020019092919050505030600460006101000a81548173ffffffffffffffffffffffffffffffffffffffff021916908373ffffffffffffffffffffffffffffffffffffffff16021790555080600560006101000a81548173ffffffffffffffffffffffffffffffffffffffff021916908373ffffffffffffffffffffffffffffffffffffffff16021790555033600660006101000a81548173ffffffffffffffffffffffffffffffffffffffff021916908373ffffffffffffffffffffffffffffffffffffffff1602179055506000600260006101000a81548160ff0219169083600881111561014657fe5b021790555060008060006101000a81548160ff0219169083600481111561016957fe5b02179055506014600381905550816007819055505050611ad28061018e6000396000f3fe6080604052600436106100c55760003560e01c806344555a391161007f5780639abb6551116100595780639abb655114610316578063d0e30db0146103f4578063f4b0b756146103fe578063fae8fb2c1461043f576100cc565b806344555a391461027f5780634a18a8ce146102c45780635287b84b146102ff576100cc565b8062113e08146100d1578063055ad42e146100e85780630c4f65bd1461011e57806315ac534d1461015f57806331fb67c21461017657806338af3eed1461023e576100cc565b366100cc57005b600080fd5b3480156100dd57600080fd5b506100e6610456565b005b3480156100f457600080fd5b506100fd610518565b6040518082600481111561010d57fe5b815260200191505060405180910390f35b34801561012a57600080fd5b50610133610529565b604051808273ffffffffffffffffffffffffffffffffffffffff16815260200191505060405180910390f35b34801561016b57600080fd5b506101746105dd565b005b34801561018257600080fd5b5061023c6004803603602081101561019957600080fd5b81019080803590602001906401000000008111156101b657600080fd5b8201836020820111156101c857600080fd5b803590602001918460018302840111640100000000831117156101ea57600080fd5b91908080601f016020809104026020016040519081016040528093929190818152602001838380828437600081840152601f19601f8201169050808301925050505050505091929192905050506106e9565b005b34801561024a57600080fd5b50610253610c5f565b604051808273ffffffffffffffffffffffffffffffffffffffff16815260200191505060405180910390f35b34801561028b57600080fd5b506102c2600480360360408110156102a257600080fd5b810190808035906020019092919080359060200190929190505050610c85565b005b3480156102d057600080fd5b506102fd600480360360208110156102e757600080fd5b810190808035906020019092919050505061125c565b005b34801561030b57600080fd5b506103146114ea565b005b34801561032257600080fd5b506103dc6004803603602081101561033957600080fd5b810190808035906020019064010000000081111561035657600080fd5b82018360208201111561036857600080fd5b8035906020019184600183028401116401000000008311171561038a57600080fd5b91908080601f016020809104026020016040519081016040528093929190818152602001838380828437600081840152601f19601f8201169050808301925050505050505091929192905050506115cf565b60405180821515815260200191505060405180910390f35b6103fc6118b8565b005b34801561040a57600080fd5b506104136118ba565b604051808273ffffffffffffffffffffffffffffffffffffffff16815260200191505060405180910390f35b34801561044b57600080fd5b506104546118e0565b005b7f875827912964972bc7f37f95730aee48894bf63c3f6e9862d43af4578064df3347600160003373ffffffffffffffffffffffffffffffffffffffff1673ffffffffffffffffffffffffffffffffffffffff168152602001908152602001600020600101543373ffffffffffffffffffffffffffffffffffffffff163160008054906101000a900460ff1660048111156104ec57fe5b6040518085815260200184815260200183815260200182815260200194505050505060405180910390a1565b60008054906101000a900460ff1681565b60007fa0b79a71901dc9357995c538e68cbb2d764aa81eef117a2135b90e79dbe2f56c600460009054906101000a900473ffffffffffffffffffffffffffffffffffffffff16600660009054906101000a900473ffffffffffffffffffffffffffffffffffffffff16604051808373ffffffffffffffffffffffffffffffffffffffff1681526020018273ffffffffffffffffffffffffffffffffffffffff1681526020019250505060405180910390a190565b600460009054906101000a900473ffffffffffffffffffffffffffffffffffffffff1673ffffffffffffffffffffffffffffffffffffffff163373ffffffffffffffffffffffffffffffffffffffff16141561063857600080fd5b60048081111561064457fe5b60008054906101000a900460ff16600481111561065d57fe5b146106d0576040517f08c379a000000000000000000000000000000000000000000000000000000000815260040180806020018281038252600d8152602001807f496e76616c69642070686173650000000000000000000000000000000000000081525060200191505060405180910390fd5b3373ffffffffffffffffffffffffffffffffffffffff16ff5b600460009054906101000a900473ffffffffffffffffffffffffffffffffffffffff1673ffffffffffffffffffffffffffffffffffffffff163373ffffffffffffffffffffffffffffffffffffffff16141561074457600080fd5b6000600460009054906101000a900473ffffffffffffffffffffffffffffffffffffffff1673ffffffffffffffffffffffffffffffffffffffff16311161078a57600080fd5b806007546040516020018083805190602001908083835b602083106107c457805182526020820191506020810190506020830392506107a1565b6001836020036101000a0380198251168184511680821785525050505050509050018281526020019250505060405160208183030381529060405280519060200120600160003373ffffffffffffffffffffffffffffffffffffffff1673ffffffffffffffffffffffffffffffffffffffff16815260200190815260200160002060000154146108bc576040517f08c379a00000000000000000000000000000000000000000000000000000000081526004018080602001828103825260108152602001807f696e76616c69642070617373776f72640000000000000000000000000000000081525060200191505060405180910390fd5b600260048111156108c957fe5b60008054906101000a900460ff1660048111156108e257fe5b14610955576040517f08c379a000000000000000000000000000000000000000000000000000000000815260040180806020018281038252600d8152602001807f496e76616c69642070686173650000000000000000000000000000000000000081525060200191505060405180910390fd5b6000600160003373ffffffffffffffffffffffffffffffffffffffff1673ffffffffffffffffffffffffffffffffffffffff1681526020019081526020016000206001015411610a0d576040517f08c379a00000000000000000000000000000000000000000000000000000000081526004018080602001828103825260198152602001807f596f7520646f6e74206861766520616e792077696e6e696e670000000000000081525060200191505060405180910390fd5b600047600160003373ffffffffffffffffffffffffffffffffffffffff1673ffffffffffffffffffffffffffffffffffffffff168152602001908152602001600020600101541115610a6157479050610aa7565b600160003373ffffffffffffffffffffffffffffffffffffffff1673ffffffffffffffffffffffffffffffffffffffff1681526020019081526020016000206001015490505b3373ffffffffffffffffffffffffffffffffffffffff166108fc600160003373ffffffffffffffffffffffffffffffffffffffff1673ffffffffffffffffffffffffffffffffffffffff168152602001908152602001600020600101549081150290604051600060405180830381858888f19350505050158015610b2f573d6000803e3d6000fd5b506000600160003373ffffffffffffffffffffffffffffffffffffffff1673ffffffffffffffffffffffffffffffffffffffff1681526020019081526020016000206001018190555060046000806101000a81548160ff02191690836004811115610b9657fe5b02179055507f875827912964972bc7f37f95730aee48894bf63c3f6e9862d43af4578064df3347600160003373ffffffffffffffffffffffffffffffffffffffff1673ffffffffffffffffffffffffffffffffffffffff168152602001908152602001600020600101543373ffffffffffffffffffffffffffffffffffffffff163160008054906101000a900460ff166004811115610c3157fe5b6040518085815260200184815260200183815260200182815260200194505050505060405180910390a15050565b600660009054906101000a900473ffffffffffffffffffffffffffffffffffffffff1681565b600460009054906101000a900473ffffffffffffffffffffffffffffffffffffffff1673ffffffffffffffffffffffffffffffffffffffff163373ffffffffffffffffffffffffffffffffffffffff161415610ce057600080fd5b6000600460009054906101000a900473ffffffffffffffffffffffffffffffffffffffff1673ffffffffffffffffffffffffffffffffffffffff163111610d2657600080fd5b60026004811115610d3357fe5b60008054906101000a900460ff166004811115610d4c57fe5b14610dbf576040517f08c379a000000000000000000000000000000000000000000000000000000000815260040180806020018281038252600d8152602001807f496e76616c69642070686173650000000000000000000000000000000000000081525060200191505060405180910390fd5b60004711610e35576040517f08c379a00000000000000000000000000000000000000000000000000000000081526004018080602001828103825260128152602001807f4f776e657220686173206e6f206d6f6e6579000000000000000000000000000081525060200191505060405180910390fd5b6000600160003373ffffffffffffffffffffffffffffffffffffffff1673ffffffffffffffffffffffffffffffffffffffff1681526020019081526020016000206001015411610e8157fe5b60006008811115610e8e57fe5b8110158015610ea85750600880811115610ea457fe5b8111155b610eae57fe5b60006008811115610ebb57fe5b8210158015610ed55750600880811115610ed157fe5b8211155b610edb57fe5b6000806008811115610ee957fe5b9050600060016008811115610efa57fe5b905060066008811115610f0957fe5b841480610f21575060046008811115610f1e57fe5b84145b15610f3a5760026008811115610f3357fe5b9150610f73565b60076008811115610f4757fe5b841415610f625760046008811115610f5b57fe5b9150610f72565b60016008811115610f6f57fe5b91505b5b8284146111005760036000806101000a81548160ff02191690836004811115610f9857fe5b0217905550670de0b6b3a76400008202600160003373ffffffffffffffffffffffffffffffffffffffff1673ffffffffffffffffffffffffffffffffffffffff168152602001908152602001600020600101600082825403925050819055508190507fe09c1055ce4d49f1de7ab9b7212776ff6f7d5aa4ffd8cf729ced9abd2e65582147600160003373ffffffffffffffffffffffffffffffffffffffff1673ffffffffffffffffffffffffffffffffffffffff168152602001908152602001600020600101543373ffffffffffffffffffffffffffffffffffffffff16318460008054906101000a900460ff16600481111561109157fe5b6040518086815260200185815260200184815260200180602001848152602001838152602001828103825260088152602001807f6e65676174697665000000000000000000000000000000000000000000000000815250602001965050505050505060405180910390a1611256565b3373ffffffffffffffffffffffffffffffffffffffff166108fc670de0b6b3a764000084029081150290604051600060405180830381858888f19350505050158015611150573d6000803e3d6000fd5b508190507fe09c1055ce4d49f1de7ab9b7212776ff6f7d5aa4ffd8cf729ced9abd2e65582147600160003373ffffffffffffffffffffffffffffffffffffffff1673ffffffffffffffffffffffffffffffffffffffff168152602001908152602001600020600101543373ffffffffffffffffffffffffffffffffffffffff16318460008054906101000a900460ff1660048111156111eb57fe5b6040518086815260200185815260200184815260200180602001848152602001838152602001828103825260088152602001807f706f736974697665000000000000000000000000000000000000000000000000815250602001965050505050505060405180910390a15b50505050565b600a8110156112b6576040517f08c379a0000000000000000000000000000000000000000000000000000000008152600401808060200182810382526022815260200180611a486022913960400191505060405180910390fd5b47811061130e576040517f08c379a0000000000000000000000000000000000000000000000000000000008152600401808060200182810382526033815260200180611a6a6033913960400191505060405180910390fd5b6001600481111561131b57fe5b60008054906101000a900460ff16600481111561133457fe5b146113a7576040517f08c379a000000000000000000000000000000000000000000000000000000000815260040180806020018281038252600d8152602001807f496e76616c69642070686173650000000000000000000000000000000000000081525060200191505060405180910390fd5b670de0b6b3a76400008102905080600160003373ffffffffffffffffffffffffffffffffffffffff1673ffffffffffffffffffffffffffffffffffffffff1681526020019081526020016000206001016000828254019250508190555060026000806101000a81548160ff0219169083600481111561142257fe5b02179055507f875827912964972bc7f37f95730aee48894bf63c3f6e9862d43af4578064df3347600160003373ffffffffffffffffffffffffffffffffffffffff1673ffffffffffffffffffffffffffffffffffffffff168152602001908152602001600020600101543373ffffffffffffffffffffffffffffffffffffffff163160008054906101000a900460ff1660048111156114bd57fe5b6040518085815260200184815260200183815260200182815260200194505050505060405180910390a150565b60026000806101000a81548160ff0219169083600481111561150857fe5b02179055507f875827912964972bc7f37f95730aee48894bf63c3f6e9862d43af4578064df3347600160003373ffffffffffffffffffffffffffffffffffffffff1673ffffffffffffffffffffffffffffffffffffffff168152602001908152602001600020600101543373ffffffffffffffffffffffffffffffffffffffff163160008054906101000a900460ff1660048111156115a357fe5b6040518085815260200184815260200183815260200182815260200194505050505060405180910390a1565b6000600460009054906101000a900473ffffffffffffffffffffffffffffffffffffffff1673ffffffffffffffffffffffffffffffffffffffff163373ffffffffffffffffffffffffffffffffffffffff16141561162c57600080fd5b6000600481111561163957fe5b60008054906101000a900460ff16600481111561165257fe5b146116c5576040517f08c379a000000000000000000000000000000000000000000000000000000000815260040180806020018281038252600d8152602001807f496e76616c69642070686173650000000000000000000000000000000000000081525060200191505060405180910390fd5b6000801b600160003373ffffffffffffffffffffffffffffffffffffffff1673ffffffffffffffffffffffffffffffffffffffff168152602001908152602001600020600001541461177f576040517f08c379a000000000000000000000000000000000000000000000000000000000815260040180806020018281038252601c8152602001807f70617373776f726420616c726561647920696e697469616c697365640000000081525060200191505060405180910390fd5b60016000806101000a81548160ff0219169083600481111561179d57fe5b0217905550816007546040516020018083805190602001908083835b602083106117dc57805182526020820191506020810190506020830392506117b9565b6001836020036101000a0380198251168184511680821785525050505050509050018281526020019250505060405160208183030381529060405280519060200120600160003373ffffffffffffffffffffffffffffffffffffffff1673ffffffffffffffffffffffffffffffffffffffff168152602001908152602001600020600001819055507fa7ec6c860b0562da7ca25e276f719d2ad4b41cb3419a54d278bc3310eb402bef60008054906101000a900460ff16600481111561189e57fe5b6040518082815260200191505060405180910390a1919050565b565b600560009054906101000a900473ffffffffffffffffffffffffffffffffffffffff1681565b600460009054906101000a900473ffffffffffffffffffffffffffffffffffffffff1673ffffffffffffffffffffffffffffffffffffffff163373ffffffffffffffffffffffffffffffffffffffff16141561193b57600080fd5b60048081111561194757fe5b60008054906101000a900460ff16600481111561196057fe5b146119d3576040517f08c379a000000000000000000000000000000000000000000000000000000000815260040180806020018281038252600d8152602001807f496e76616c69642070686173650000000000000000000000000000000000000081525060200191505060405180910390fd5b60016000806101000a81548160ff021916908360048111156119f157fe5b02179055507fac6dc5afc7288de486f031af859ae136dac47ca4bfafc2ac097d9ea867e189b060008054906101000a900460ff166004811115611a3057fe5b6040518082815260200191505060405180910390a156fe42657474696e672076616c75652073686f756c642062652061746c6561737420313042657474696e672076616c75652073686f756c64206265206c657373207468616e207468652062657474696e672076616c7565a2646970667358221220ba7b49c9323dd22305f846d4c22ebe6f0eae48910e8c9d5a406f997d53001e8964736f6c634300060c0033",
  "immutableReferences": {},
  "source": "//SPDX-License-Identifier: UNLICENSED\r\npragma solidity >=0.4.22 <=0.6.12;\r\n\r\ncontract BettingLite \r\n{\r\n    \r\n\t//structure composed of participants, has the information of the maount of betting and points he won\r\n    struct participants\r\n    { \r\n        bytes32 password;\r\n        uint bettingAmount;\r\n    } \r\n    \r\n    enum Phase {INIT, INVEST, BETTING, PAYUP, DONE}\r\n    enum Score {ZERO, ONE, TWO, THREE, FOUR, FIVE, SIX, SEVEN, EIGHT}\r\n    \r\n    Phase public currentPhase = Phase.INIT;\r\n    \r\n\t//All the participants are mapped to an address\r\n    mapping ( address => participants) result; \r\n    \r\n    Score score;\r\n    uint minBet;\r\n    address payable owner;\r\n    address payable public reciever;\r\n    address payable public beneficiary;\r\n    bytes32 salt;\r\n    \r\n    event Balances(uint arbitarBalance, uint bettingValue, uint playerBalance, uint phase);\r\n    event BalancesWithMsg(uint arbitarBalance, uint bettingValue, uint playerBalance, string msg , uint256 value, uint phase);\r\n    event Message(string val, string message);\r\n    event InvestingStarted(uint phase);\r\n    event BettingStarted(uint phase);\r\n    event BettingDone(uint phase);\r\n    event CurrentPhase(uint phase);\r\n    event OwnerInfo(address ownerAccount, address ownerAddress);\r\n\r\n    //constructor initialises the betting values and points of the organizer by 100 for participation\r\n    constructor(bytes32 _salt, address payable recipientAddress) public payable\r\n    {\r\n        owner = address(this);\r\n        reciever = recipientAddress;\r\n        beneficiary = msg.sender;\r\n        score = Score.ZERO;\r\n        currentPhase = Phase.INIT;\r\n        minBet = 20;\r\n        salt = _salt;\r\n    }\r\n    \r\n    //Fallback functions\r\n    receive () external payable {\r\n    \r\n    }\r\n\r\n    function deposit() public payable {\r\n\r\n    }\r\n\r\n\t//modifier functions\r\n    modifier _ownerOnly() \r\n    {\r\n        require(msg.sender == owner);\r\n        _;\r\n    }\r\n    \r\n    modifier _playerOnly() \r\n    {\r\n        require(msg.sender != owner);\r\n        _;\r\n    }\r\n\r\n    modifier _ownerHasMoney() {\r\n        require(owner.balance  > 0);\r\n        _;    \r\n    }\r\n    \r\n    //Step 1 create password, returns phase as betting\r\n    function createPassword (string memory password) _playerOnly public returns (bool)\r\n    {\r\n        require(currentPhase == Phase.INIT, \"Invalid phase\");\r\n        require((result[msg.sender].password == 0x0000000000000000000000000000000000000000000000000000000000000000), \"password already initialised\");\r\n        currentPhase = Phase.INVEST;\r\n        result[msg.sender].password = keccak256(abi.encodePacked(password, salt));\r\n        emit InvestingStarted(uint(currentPhase));\r\n    }\r\n\r\n    //Step 2 Enter the betting value, returns balances of both players along with the betting value\r\n    function bettingValue(uint val) public {\r\n        require(val >= 10, \"Betting value should be atleast 10\");\r\n        require(val < address(this).balance, \"Betting value should be less than the betting value\");\r\n        require(currentPhase == Phase.INVEST, \"Invalid phase\");\r\n        val = val * 1000000000000000000;\r\n        result[msg.sender].bettingAmount += val;\r\n        currentPhase = Phase.BETTING;\r\n        emit Balances(address(this).balance, result[msg.sender].bettingAmount, msg.sender.balance, uint(currentPhase));\r\n    }\r\n\r\n    //Step 3 two parameters which decides if the predicted value of the user is correct, he is either rewared or penalized based on this\r\n    function predictWinning(uint256 prediction, uint256 actualValue) _playerOnly _ownerHasMoney public \r\n    {\r\n        require(currentPhase == Phase.BETTING, \"Invalid phase\");\r\n        require(address(this).balance > 0, \"Owner has no money\");\r\n        assert(result[msg.sender].bettingAmount > 0);\r\n        assert(actualValue >= uint256(Score.ZERO) && actualValue <= uint256(Score.EIGHT));\r\n        assert(prediction >= uint256(Score.ZERO) && prediction <= uint256(Score.EIGHT));\r\n        \r\n        uint256 point = uint256(Score.ZERO);\r\n        uint256 value = uint256(Score.ONE);\r\n        \r\n        if(prediction == uint256(Score.SIX) || prediction == uint256(Score.FOUR)) \r\n        {\r\n            point = uint256(Score.TWO);\r\n        }\r\n        else if(prediction == uint256(Score.SEVEN)) \r\n        {\r\n            //to represent wicket\r\n            point = uint256(Score.FOUR);\r\n        }\r\n        else \r\n        {\r\n            point = uint256(Score.ONE);\r\n        }\r\n        \r\n        if(prediction != actualValue) \r\n        {\r\n            currentPhase = Phase.PAYUP;\r\n            result[msg.sender].bettingAmount -= point * 1000000000000000000; \r\n            value = point;\r\n            emit BalancesWithMsg(address(this).balance, result[msg.sender].bettingAmount, msg.sender.balance,\"negative\", value, uint(currentPhase));\r\n        }\r\n        else {\r\n            msg.sender.transfer( point * 1000000000000000000);\r\n            value = point;\r\n            emit BalancesWithMsg(address(this).balance, result[msg.sender].bettingAmount, msg.sender.balance, \"positive\", value, uint(currentPhase));\r\n        }\r\n    }\r\n\r\n    //Step 4 after paying it, we move on to betting phase again\r\n    function settleUp() public {\r\n        currentPhase = Phase.BETTING;\r\n        emit Balances(address(this).balance, result[msg.sender].bettingAmount, msg.sender.balance, uint(currentPhase));\r\n    }\r\n\r\n    //Step 5 final winning amount can be withdrawn by the player\r\n    function withdraw(string memory password) _playerOnly _ownerHasMoney public \r\n    {\r\n        require(result[msg.sender].password == keccak256(abi.encodePacked(password, salt)),\"invalid password\");\r\n        require(currentPhase == Phase.BETTING, \"Invalid phase\");\r\n        require(result[msg.sender].bettingAmount > 0, \"You dont have any winning\");\r\n        uint amount = 0;\r\n        if(result[msg.sender].bettingAmount > address(this).balance) {\r\n            amount = address(this).balance;\r\n        }\r\n        else {\r\n            amount = result[msg.sender].bettingAmount;\r\n        }\r\n        msg.sender.transfer(result[msg.sender].bettingAmount);\r\n        result[msg.sender].bettingAmount = 0;\r\n        currentPhase = Phase.DONE;\r\n        emit Balances(address(this).balance, result[msg.sender].bettingAmount, msg.sender.balance, uint(currentPhase));\r\n    }\r\n\t\r\n    //Step 6 retry the betting\r\n    function retry() _playerOnly public {\r\n        require(currentPhase == Phase.DONE, \"Invalid phase\");\r\n        currentPhase = Phase.INVEST;\r\n        emit BettingStarted(uint(currentPhase));\r\n    }\r\n\r\n    //Step 7 when the betting is finished\r\n    function closeBetting() public _playerOnly {\r\n        require(currentPhase == Phase.DONE, \"Invalid phase\");\r\n        selfdestruct(msg.sender);\r\n        emit BettingDone(uint(currentPhase));\r\n    }\r\n\r\n    //Anscillary functions\r\n    function getBalances() public {\r\n        emit Balances(address(this).balance, result[msg.sender].bettingAmount ,msg.sender.balance, uint(currentPhase));\r\n    }\r\n\r\n    function getOwnerAddress() public returns (address) {\r\n        emit OwnerInfo(owner, beneficiary);\r\n    }\r\n}",
  "sourcePath": "D:/Git/Active projects/BlockChainProject/BettingLite-contract/contracts/BettingLite.sol",
  "compiler": {
    "name": "solc",
    "version": "0.6.12+commit.27d51765.Emscripten.clang"
  },
  "schemaVersion": "3.3.1",
  "updatedAt": "2020-11-23T06:27:03.920Z",
  "networkType": "ethereum",
  "devdoc": {
    "kind": "dev",
    "methods": {},
    "version": 1
  },
  "userdoc": {
    "kind": "user",
    "methods": {},
    "version": 1
  }
}