{
  "contractName": "BettingLite",
  "abi": [
    {
      "inputs": [
        {
          "internalType": "bytes32",
          "name": "_salt",
          "type": "bytes32"
        }
      ],
      "stateMutability": "nonpayable",
      "type": "constructor"
    },
    {
      "anonymous": false,
      "inputs": [
        {
          "indexed": false,
          "internalType": "uint256",
          "name": "arbitarBalance",
          "type": "uint256"
        },
        {
          "indexed": false,
          "internalType": "uint256",
          "name": "playerBalance",
          "type": "uint256"
        }
      ],
      "name": "Balances",
      "type": "event"
    },
    {
      "anonymous": false,
      "inputs": [],
      "name": "BettingDone",
      "type": "event"
    },
    {
      "anonymous": false,
      "inputs": [
        {
          "indexed": false,
          "internalType": "int256",
          "name": "value",
          "type": "int256"
        }
      ],
      "name": "BettingStarted",
      "type": "event"
    },
    {
      "inputs": [],
      "name": "currentPhase",
      "outputs": [
        {
          "internalType": "enum BettingLite.Phase",
          "name": "",
          "type": "uint8"
        }
      ],
      "stateMutability": "view",
      "type": "function",
      "constant": true
    },
    {
      "inputs": [],
      "name": "getOwnerAddress",
      "outputs": [
        {
          "internalType": "address",
          "name": "",
          "type": "address"
        }
      ],
      "stateMutability": "view",
      "type": "function",
      "constant": true
    },
    {
      "inputs": [
        {
          "internalType": "string",
          "name": "password",
          "type": "string"
        }
      ],
      "name": "createPassword",
      "outputs": [
        {
          "internalType": "bool",
          "name": "",
          "type": "bool"
        }
      ],
      "stateMutability": "nonpayable",
      "type": "function"
    },
    {
      "inputs": [
        {
          "internalType": "string",
          "name": "password",
          "type": "string"
        }
      ],
      "name": "placeBet",
      "outputs": [
        {
          "internalType": "uint256",
          "name": "",
          "type": "uint256"
        }
      ],
      "stateMutability": "payable",
      "type": "function",
      "payable": true
    },
    {
      "inputs": [],
      "name": "getBalances",
      "outputs": [],
      "stateMutability": "nonpayable",
      "type": "function"
    },
    {
      "inputs": [
        {
          "internalType": "uint256",
          "name": "prediction",
          "type": "uint256"
        },
        {
          "internalType": "uint256",
          "name": "actualValue",
          "type": "uint256"
        }
      ],
      "name": "predictWinning",
      "outputs": [],
      "stateMutability": "nonpayable",
      "type": "function"
    },
    {
      "inputs": [
        {
          "internalType": "string",
          "name": "password",
          "type": "string"
        }
      ],
      "name": "withdraw",
      "outputs": [],
      "stateMutability": "nonpayable",
      "type": "function"
    },
    {
      "inputs": [],
      "name": "closeBetting",
      "outputs": [],
      "stateMutability": "nonpayable",
      "type": "function"
    }
  ],
  "bytecode": "0x608060405260008060006101000a81548160ff0219169083600281111561002257fe5b021790555034801561003357600080fd5b50604051611ac0380380611ac08339818101604052602081101561005657600080fd5b810190808051906020019092919050505033600460006101000a81548173ffffffffffffffffffffffffffffffffffffffff021916908373ffffffffffffffffffffffffffffffffffffffff1602179055506103e860016000600460009054906101000a900473ffffffffffffffffffffffffffffffffffffffff1673ffffffffffffffffffffffffffffffffffffffff1673ffffffffffffffffffffffffffffffffffffffff168152602001908152602001600020600001819055506103e860016000600460009054906101000a900473ffffffffffffffffffffffffffffffffffffffff1673ffffffffffffffffffffffffffffffffffffffff1673ffffffffffffffffffffffffffffffffffffffff168152602001908152602001600020600101819055506000600260006101000a81548160ff0219169083600881111561019d57fe5b021790555060008060006101000a81548160ff021916908360028111156101c057fe5b0217905550606460038190555080600581905550506118dc806101e46000396000f3fe60806040526004361061007a5760003560e01c806331fb67c21161004e57806331fb67c21461012457806344555a39146101ec57806397bfeb88146102315780639abb6551146103005761007a565b8062113e081461007f578063055ad42e146100965780630c4f65bd146100cc57806315ac534d1461010d575b600080fd5b34801561008b57600080fd5b506100946103de565b005b3480156100a257600080fd5b506100ab6104c5565b604051808260028111156100bb57fe5b815260200191505060405180910390f35b3480156100d857600080fd5b506100e16104d6565b604051808273ffffffffffffffffffffffffffffffffffffffff16815260200191505060405180910390f35b34801561011957600080fd5b50610122610500565b005b34801561013057600080fd5b506101ea6004803603602081101561014757600080fd5b810190808035906020019064010000000081111561016457600080fd5b82018360208201111561017657600080fd5b8035906020019184600183028401116401000000008311171561019857600080fd5b91908080601f016020809104026020016040519081016040528093929190818152602001838380828437600081840152601f19601f82011690508083019250505050505050919291929050505061060c565b005b3480156101f857600080fd5b5061022f6004803603604081101561020f57600080fd5b810190808035906020019092919080359060200190929190505050610bac565b005b6102ea6004803603602081101561024757600080fd5b810190808035906020019064010000000081111561026457600080fd5b82018360208201111561027657600080fd5b8035906020019184600183028401116401000000008311171561029857600080fd5b91908080601f016020809104026020016040519081016040528093929190818152602001838380828437600081840152601f19601f8201169050808301925050505050505091929192905050506110c5565b6040518082815260200191505060405180910390f35b34801561030c57600080fd5b506103c66004803603602081101561032357600080fd5b810190808035906020019064010000000081111561034057600080fd5b82018360208201111561035257600080fd5b8035906020019184600183028401116401000000008311171561037457600080fd5b91908080601f016020809104026020016040519081016040528093929190818152602001838380828437600081840152601f19601f82011690508083019250505050505050919291929050505061150d565b60405180821515815260200191505060405180910390f35b7f82020481f2e6414ed047a5b7505703ef92e18e8a85951999d348819f0bec5ebb60016000600460009054906101000a900473ffffffffffffffffffffffffffffffffffffffff1673ffffffffffffffffffffffffffffffffffffffff1673ffffffffffffffffffffffffffffffffffffffff16815260200190815260200160002060010154600160003373ffffffffffffffffffffffffffffffffffffffff1673ffffffffffffffffffffffffffffffffffffffff16815260200190815260200160002060010154604051808381526020018281526020019250505060405180910390a1565b60008054906101000a900460ff1681565b6000600460009054906101000a900473ffffffffffffffffffffffffffffffffffffffff16905090565b600460009054906101000a900473ffffffffffffffffffffffffffffffffffffffff1673ffffffffffffffffffffffffffffffffffffffff163373ffffffffffffffffffffffffffffffffffffffff16141561055b57600080fd5b60028081111561056757fe5b60008054906101000a900460ff16600281111561058057fe5b146105f3576040517f08c379a000000000000000000000000000000000000000000000000000000000815260040180806020018281038252600d8152602001807f496e76616c69642070686173650000000000000000000000000000000000000081525060200191505060405180910390fd5b3373ffffffffffffffffffffffffffffffffffffffff16ff5b600460009054906101000a900473ffffffffffffffffffffffffffffffffffffffff1673ffffffffffffffffffffffffffffffffffffffff163373ffffffffffffffffffffffffffffffffffffffff16141561066757600080fd5b600060016000600460009054906101000a900473ffffffffffffffffffffffffffffffffffffffff1673ffffffffffffffffffffffffffffffffffffffff1673ffffffffffffffffffffffffffffffffffffffff16815260200190815260200160002060010154116106d857600080fd5b600160028111156106e557fe5b60008054906101000a900460ff1660028111156106fe57fe5b14610771576040517f08c379a000000000000000000000000000000000000000000000000000000000815260040180806020018281038252600d8152602001807f496e76616c69642070686173650000000000000000000000000000000000000081525060200191505060405180910390fd5b806005546040516020018083805190602001908083835b602083106107ab5780518252602082019150602081019050602083039250610788565b6001836020036101000a0380198251168184511680821785525050505050509050018281526020019250505060405160208183030381529060405280519060200120600160003373ffffffffffffffffffffffffffffffffffffffff1673ffffffffffffffffffffffffffffffffffffffff16815260200190815260200160002060020154146108a3576040517f08c379a000000000000000000000000000000000000000000000000000000000815260040180806020018281038252600e8152602001807f57726f6e672070617373776f726400000000000000000000000000000000000081525060200191505060405180910390fd5b6000600160003373ffffffffffffffffffffffffffffffffffffffff1673ffffffffffffffffffffffffffffffffffffffff168152602001908152602001600020600101541161093e576040517f08c379a00000000000000000000000000000000000000000000000000000000081526004018080602001828103825260248152602001806118836024913960400191505060405180910390fd5b6000600160003373ffffffffffffffffffffffffffffffffffffffff1673ffffffffffffffffffffffffffffffffffffffff16815260200190815260200160002060000154600160003373ffffffffffffffffffffffffffffffffffffffff1673ffffffffffffffffffffffffffffffffffffffff168152602001908152602001600020600101540390506000600160003373ffffffffffffffffffffffffffffffffffffffff1673ffffffffffffffffffffffffffffffffffffffff168152602001908152602001600020600101819055506000600160003373ffffffffffffffffffffffffffffffffffffffff1673ffffffffffffffffffffffffffffffffffffffff168152602001908152602001600020600001819055503373ffffffffffffffffffffffffffffffffffffffff166108fc829081150290604051600060405180830381858888f19350505050158015610a9f573d6000803e3d6000fd5b5060026000806101000a81548160ff02191690836002811115610abe57fe5b02179055507f82020481f2e6414ed047a5b7505703ef92e18e8a85951999d348819f0bec5ebb600160003373ffffffffffffffffffffffffffffffffffffffff1673ffffffffffffffffffffffffffffffffffffffff1681526020019081526020016000206001015460016000600460009054906101000a900473ffffffffffffffffffffffffffffffffffffffff1673ffffffffffffffffffffffffffffffffffffffff1673ffffffffffffffffffffffffffffffffffffffff16815260200190815260200160002060010154604051808381526020018281526020019250505060405180910390a15050565b600460009054906101000a900473ffffffffffffffffffffffffffffffffffffffff1673ffffffffffffffffffffffffffffffffffffffff163373ffffffffffffffffffffffffffffffffffffffff161415610c0757600080fd5b600060016000600460009054906101000a900473ffffffffffffffffffffffffffffffffffffffff1673ffffffffffffffffffffffffffffffffffffffff1673ffffffffffffffffffffffffffffffffffffffff1681526020019081526020016000206001015411610c7857600080fd5b60016002811115610c8557fe5b60008054906101000a900460ff166002811115610c9e57fe5b14610d11576040517f08c379a000000000000000000000000000000000000000000000000000000000815260040180806020018281038252600d8152602001807f496e76616c69642070686173650000000000000000000000000000000000000081525060200191505060405180910390fd5b6000600160003373ffffffffffffffffffffffffffffffffffffffff1673ffffffffffffffffffffffffffffffffffffffff1681526020019081526020016000206001015411610d5d57fe5b60006008811115610d6a57fe5b8110158015610d845750600880811115610d8057fe5b8111155b610d8a57fe5b60006008811115610d9757fe5b8210158015610db15750600880811115610dad57fe5b8211155b610db757fe5b6000806008811115610dc557fe5b905060066008811115610dd457fe5b831480610dec575060046008811115610de957fe5b83145b15610e055760026008811115610dfe57fe5b9050610e3e565b60076008811115610e1257fe5b831415610e2d5760046008811115610e2657fe5b9050610e3d565b60016008811115610e3a57fe5b90505b5b818314610f1257600a810260016000600460009054906101000a900473ffffffffffffffffffffffffffffffffffffffff1673ffffffffffffffffffffffffffffffffffffffff1673ffffffffffffffffffffffffffffffffffffffff16815260200190815260200160002060010160008282540192505081905550600a8102600160003373ffffffffffffffffffffffffffffffffffffffff1673ffffffffffffffffffffffffffffffffffffffff16815260200190815260200160002060010160008282540392505081905550610fdb565b600a810260016000600460009054906101000a900473ffffffffffffffffffffffffffffffffffffffff1673ffffffffffffffffffffffffffffffffffffffff1673ffffffffffffffffffffffffffffffffffffffff16815260200190815260200160002060010160008282540392505081905550600a8102600160003373ffffffffffffffffffffffffffffffffffffffff1673ffffffffffffffffffffffffffffffffffffffff168152602001908152602001600020600101600082825401925050819055505b7f82020481f2e6414ed047a5b7505703ef92e18e8a85951999d348819f0bec5ebb600160003373ffffffffffffffffffffffffffffffffffffffff1673ffffffffffffffffffffffffffffffffffffffff1681526020019081526020016000206001015460016000600460009054906101000a900473ffffffffffffffffffffffffffffffffffffffff1673ffffffffffffffffffffffffffffffffffffffff1673ffffffffffffffffffffffffffffffffffffffff16815260200190815260200160002060010154604051808381526020018281526020019250505060405180910390a1505050565b6000600460009054906101000a900473ffffffffffffffffffffffffffffffffffffffff1673ffffffffffffffffffffffffffffffffffffffff163373ffffffffffffffffffffffffffffffffffffffff16141561112257600080fd5b600060016000600460009054906101000a900473ffffffffffffffffffffffffffffffffffffffff1673ffffffffffffffffffffffffffffffffffffffff1673ffffffffffffffffffffffffffffffffffffffff168152602001908152602001600020600101541161119357600080fd5b816005546040516020018083805190602001908083835b602083106111cd57805182526020820191506020810190506020830392506111aa565b6001836020036101000a0380198251168184511680821785525050505050509050018281526020019250505060405160208183030381529060405280519060200120600160003373ffffffffffffffffffffffffffffffffffffffff1673ffffffffffffffffffffffffffffffffffffffff16815260200190815260200160002060020154146112c5576040517f08c379a000000000000000000000000000000000000000000000000000000000815260040180806020018281038252600e8152602001807f57726f6e672070617373776f726400000000000000000000000000000000000081525060200191505060405180910390fd5b600160028111156112d257fe5b60008054906101000a900460ff1660028111156112eb57fe5b1461135e576040517f08c379a000000000000000000000000000000000000000000000000000000000815260040180806020018281038252600d8152602001807f496e76616c69642070686173650000000000000000000000000000000000000081525060200191505060405180910390fd5b60035434116113d5576040517f08c379a000000000000000000000000000000000000000000000000000000000815260040180806020018281038252601e8152602001807f73686f756c642073656e64206d6f72652074686174203130302077656973000081525060200191505060405180910390fd5b6113de346117df565b7f82020481f2e6414ed047a5b7505703ef92e18e8a85951999d348819f0bec5ebb600160003373ffffffffffffffffffffffffffffffffffffffff1673ffffffffffffffffffffffffffffffffffffffff1681526020019081526020016000206001015460016000600460009054906101000a900473ffffffffffffffffffffffffffffffffffffffff1673ffffffffffffffffffffffffffffffffffffffff1673ffffffffffffffffffffffffffffffffffffffff16815260200190815260200160002060010154604051808381526020018281526020019250505060405180910390a1600160003373ffffffffffffffffffffffffffffffffffffffff1673ffffffffffffffffffffffffffffffffffffffff168152602001908152602001600020600001549050919050565b6000600460009054906101000a900473ffffffffffffffffffffffffffffffffffffffff1673ffffffffffffffffffffffffffffffffffffffff163373ffffffffffffffffffffffffffffffffffffffff16141561156a57600080fd5b6000600281111561157757fe5b60008054906101000a900460ff16600281111561159057fe5b14611603576040517f08c379a000000000000000000000000000000000000000000000000000000000815260040180806020018281038252600d8152602001807f496e76616c69642070686173650000000000000000000000000000000000000081525060200191505060405180910390fd5b6000801b600160003373ffffffffffffffffffffffffffffffffffffffff1673ffffffffffffffffffffffffffffffffffffffff16815260200190815260200160002060020154146116bd576040517f08c379a000000000000000000000000000000000000000000000000000000000815260040180806020018281038252601c8152602001807f70617373776f726420616c726561647920696e697469616c697365640000000081525060200191505060405180910390fd5b60016000806101000a81548160ff021916908360028111156116db57fe5b0217905550816005546040516020018083805190602001908083835b6020831061171a57805182526020820191506020810190506020830392506116f7565b6001836020036101000a0380198251168184511680821785525050505050509050018281526020019250505060405160208183030381529060405280519060200120600160003373ffffffffffffffffffffffffffffffffffffffff1673ffffffffffffffffffffffffffffffffffffffff168152602001908152602001600020600201819055507f8389a637c337d1c1545bb420abc405370314203b49689b47597b47139adfd1ff60006040518082815260200191505060405180910390a1919050565b80600160003373ffffffffffffffffffffffffffffffffffffffff1673ffffffffffffffffffffffffffffffffffffffff1681526020019081526020016000206000016000828254019250508190555080600160003373ffffffffffffffffffffffffffffffffffffffff1673ffffffffffffffffffffffffffffffffffffffff168152602001908152602001600020600101600082825401925050819055505056fe596f7520646f6e74206861766520616e7920706f696e747320746f207769746864726177a2646970667358221220c2b54f1c1b52d22fc17aedc1493d15f885254f3d81b096127b9b133da370269864736f6c634300060c0033",
  "immutableReferences": {},
  "source": "//SPDX-License-Identifier: UNLICENSED\r\npragma solidity >=0.4.22 <=0.6.12;\r\n\r\ncontract BettingLite \r\n{\r\n    \r\n\t//structure composed of participants, has the information of the maount of betting and points he won\r\n    struct participants\r\n    { \r\n        uint256 bettingVal; \r\n        uint256 points;\r\n        bytes32 password;\r\n    } \r\n    \r\n    enum Phase {INIT, BETTING, DONE}\r\n    enum Score {ZERO, ONE, TWO, THREE, FOUR, FIVE, SIX, SEVEN, EIGHT}\r\n    \r\n    Phase public currentPhase = Phase.INIT;\r\n    \r\n\t//All the participants are mapped to an address\r\n    mapping ( address => participants) result; \r\n    \r\n    Score score;\r\n    uint256 minBet;\r\n    address owner;\r\n    bytes32 salt;\r\n    \r\n    event Balances(uint arbitarBalance, uint playerBalance);\r\n    event BettingStarted(int value);\r\n    event BettingDone();\r\n\r\n    //constructor initialises the betting values and points of the organizer by 100 for participation\r\n    constructor(bytes32 _salt) public \r\n    {\r\n        owner = msg.sender;\r\n        result[owner].bettingVal = 1000;\r\n        result[owner].points = 1000;\r\n        score = Score.ZERO;\r\n        currentPhase = Phase.INIT;\r\n        minBet = 100;\r\n        salt = _salt;\r\n    }\r\n    \r\n\t//modifier to be used only by the organiser\r\n    modifier _ownerOnly() \r\n    {\r\n        require(msg.sender == owner);\r\n        _;\r\n    }\r\n    \r\n\t//modifier to be used only by the player\r\n    modifier _playerOnly() \r\n    {\r\n        require(msg.sender != owner);\r\n        _;\r\n    }\r\n\r\n    modifier _ownerHasMoney() {\r\n        require(result[owner].points  > 0);\r\n        _;    \r\n    }\r\n\r\n    function getOwnerAddress() public view returns (address) {\r\n        return owner;\r\n    }\r\n\t\r\n    function createPassword (string memory password) _playerOnly public returns (bool)\r\n    {\r\n        require(currentPhase == Phase.INIT, \"Invalid phase\");\r\n        require((result[msg.sender].password == 0x0000000000000000000000000000000000000000000000000000000000000000), \"password already initialised\");\r\n        currentPhase = Phase.BETTING;\r\n        result[msg.sender].password = keccak256(abi.encodePacked(password, salt));\r\n        emit BettingStarted(0);\r\n    }\r\n    \r\n\t//the placebet function takes a nominal amount as wei for participation\r\n    function placeBet(string memory password) public payable _playerOnly _ownerHasMoney returns (uint256) \r\n    {\r\n        require(result[msg.sender].password == keccak256(abi.encodePacked(password, salt)), \"Wrong password\");\r\n        require(currentPhase == Phase.BETTING, \"Invalid phase\");\r\n        require(msg.value > minBet , \"should send more that 100 weis\");\r\n        buyTokens(msg.value);\r\n        emit Balances(result[msg.sender].points, result[owner].points);\r\n        return result[msg.sender].bettingVal;\r\n    }\r\n    \r\n\t//tokens are provided to the players based on the amount he has spent\r\n    function buyTokens(uint256 amount) private \r\n    {\r\n        result[msg.sender].bettingVal += amount;\r\n        result[msg.sender].points += amount;\r\n    }\r\n\r\n\t// At any time both the players and the arbitar can check arbitar's points\r\n    function getBalances() public \r\n    {\r\n        emit Balances(result[owner].points, result[msg.sender].points);\r\n    }\r\n    \r\n\t//Takes two parameters which decides if the predicted value of the user is correct, he is either rewared or penalized based on this\r\n    function predictWinning(uint256 prediction, uint256 actualValue) _playerOnly _ownerHasMoney public \r\n    {\r\n        require(currentPhase == Phase.BETTING, \"Invalid phase\");\r\n        assert(result[msg.sender].points > 0);\r\n        assert(actualValue >= uint256(Score.ZERO) && actualValue <= uint256(Score.EIGHT));\r\n        assert(prediction >= uint256(Score.ZERO) && prediction <= uint256(Score.EIGHT));\r\n        \r\n        uint256 point = uint256(Score.ZERO);\r\n        \r\n        if(prediction == uint256(Score.SIX) || prediction == uint256(Score.FOUR)) \r\n        {\r\n            point = uint256(Score.TWO);\r\n        }\r\n        else if(prediction == uint256(Score.SEVEN)) \r\n        {\r\n            //to represent wicket\r\n            point = uint256(Score.FOUR);\r\n        }\r\n        else \r\n        {\r\n            point = uint256(Score.ONE);\r\n        }\r\n        \r\n        if(prediction != actualValue) \r\n        {\r\n            result[owner].points += point * 10;\r\n            result[msg.sender].points -= point * 10;\r\n        }\r\n        else \r\n        {\r\n            result[owner].points -= point * 10;\r\n            result[msg.sender].points += point * 10;\r\n        }\r\n\r\n        emit Balances(result[msg.sender].points, result[owner].points);\r\n    }\r\n    \r\n\t//The final winning amount can be withdrawn by the player\r\n    function withdraw(string memory password) _playerOnly _ownerHasMoney public \r\n    {\r\n        require(currentPhase == Phase.BETTING, \"Invalid phase\");\r\n        require(result[msg.sender].password == keccak256(abi.encodePacked(password, salt)), \"Wrong password\");\r\n        require(result[msg.sender].points > 0,'You dont have any points to withdraw');\r\n        uint256 profit = result[msg.sender].points - result[msg.sender].bettingVal; \r\n        result[msg.sender].points = 0;\r\n        result[msg.sender].bettingVal = 0;\r\n        payable(msg.sender).transfer(profit);\r\n        currentPhase = Phase.DONE;\r\n        emit Balances(result[msg.sender].points, result[owner].points);\r\n    }\r\n\r\n    function closeBetting() public _playerOnly {\r\n        require(currentPhase == Phase.DONE, \"Invalid phase\");\r\n        selfdestruct(msg.sender);\r\n        emit BettingDone();\r\n    }\r\n}",
  "sourcePath": "D:/Git/Active projects/BlockChainProject/BettingLite-contract/contracts/BettingLite.sol",
  "compiler": {
    "name": "solc",
    "version": "0.6.12+commit.27d51765.Emscripten.clang"
  },
  "schemaVersion": "3.3.1",
  "updatedAt": "2020-11-16T05:47:20.022Z",
  "networkType": "ethereum",
  "devdoc": {
    "kind": "dev",
    "methods": {},
    "version": 1
  },
  "userdoc": {
    "kind": "user",
    "methods": {},
    "version": 1
  }
}